S013000061726475696E6F746573742E737265635F
S11300000C9468010C944A0D0C94770D0C94900197
S11300100C9490010C9490010C9490010C949C0A03
S11300200C9490010C9490010C9490010C94900108
S11300300C9490010C9490010C9490010C949001F8
S11300400C94860E0C9490010C9434060C946C065B
S11300500C9490010C9490010C9490010C949001D8
S11300600C94F10B0C9490018108A208A2089F083B
S1130070A2087D08A208A208A2086F08A208A20884
S11300808A089B089708A208A208A2089308FF0CF4
S1130090030D030D030D030D030D030D030D110CCF
S11300A0030D030D030D030D030D030D030D110CBF
S11300B0030D030D030D030D030D030D030D190CA7
S11300C0030D030D030D030D030D030D030D3F0C71
S11300D0030D030D030D030D030D030D030D190C87
S11300E0030D030D030D030D030D030D030D450C4B
S11300F0030D030D030D030D030D030D030D4B0C35
S1130100030D030D030D030D030D030D030D5D0C12
S1130110030D030D030D030D030D030D030D870CD8
S1130120030D030D030D030D030D030D030D510CFE
S1130130030D030D030D030D030D030D030D6B0CD4
S1130140030D030D030D030D030D030D030D8A0CA5
S1130150030D030D030D030D030D030D030D8A0C95
S1130160030D030D030D030D030D030D030D8A0C85
S1130170030D030D030D030D030D030D030D8A0C75
S1130180030D030D030D030D030D030D030D930C5C
S1130190030D030D030D030D030D030D030DC60C19
S11301A0030D030D030D030D030D030D030D930C3C
S11301B0030D030D030D030D030D030D030DC60CF9
S11301C0030D030D030D030D030D030D030DAB0C04
S11301D0030D030D030D030D030D030D030DCA0CD5
S11301E0030D030D030D030D030D030D030DCA0CC5
S11301F0030D030D030D030D030D030D030DDF0CA0
S1130200030D030D030D030D030D030D030DF90C75
S1130210030D030D030D030D030D030D030DF90C65
S11302205254432054696D652073657421004F63F3
S11302307420323220323031350032323A30333A9F
S1130240353100525443206973204E4F5420727547
S11302506E6E696E67212C20436865636B20776935
S113026072696E672073657475702E0D0A00020042
S11302700000080002010000030407000000000061
S1130280000000010204081020408001020408104C
S113029020010204081020040404040404040402D9
S11302A0020202020203030303030300000000230B
S11302B0002600290000000000250028002B000073
S11302C0000000240027002A00009C060C07810E71
S11302D011241FBECFEFD4E0DEBFCDBF11E0A0E0FC
S11302E0B1E0ECEFF4E202C005900D92A435B10741
S11302F0D9F722E0A4E5B1E001C01D92A13EB20706
S1130300E1F711E0C8E6D1E004C02197FE010E94A4
S11303105912C536D107C9F70E9418070C947C12EC
S11303200C9400000895CF93DF9300D000D000D048
S1130330CDB7DEB786E892E00E94410E0E94D00855
S113034088B1807288B988B1807188B960E0809181
S113035029010E94A80F61E0809123010E94A80F47
S113036061E080911F010E94A80F61E0809121014A
S11303700E94A80F60E0809127010E94A80F60E00E
S1130380809125010E94A80F60E080911D010E94C8
S1130390A80F8EE591E00E94F50881111EC063E468
S11303A072E08AE691E00E94990768EC70E080E0D0
S11303B090E00E94F60E4AE352E06EE272E0CE0153
S11303C001960E944408CE0101960E94D50960E27C
S11303D072E08AE691E00E945407809100010E9435
S11303E0D20826960FB6F894DEBF0FBECDBFDF91BC
S11303F0CF910895EF92FF920F931F93CF93DF93C2
S113040010925F01109260011092610110926201DA
S1130410892BC9F5C4E6D0E00DE111E0F801808133
S11304200E945D0FBC01990F880B990B0E942A1141
S113043020915F013091600140916101509162010E
S11304400E94861060935F01709360018093610144
S113045090936201219711F720E030E44CE950E4D5
S11304600E94B611062F172F282F392F00936301EE
S1130470109364012093650130936601562F472F32
S1130480382F292F35C0C4E6D0E000E010E00F2E4D
S1130490FDE1EF2EF1E0FF2EF02DF70180810E94A7
S11304A05D0F080F191F2197C1F7C80164E670E0BA
S11304B00E942312072E000C880B990B0E942A110C
S11304C020E030E44CE950E40E94B61120E030E032
S11304D040E251E40E9486100E94F210072E000CA4
S11304E0880B990B0E942A11562F472F382F292F3A
S11304F0652F742F832F922FDF91CF911F910F912E
S1130500FF90EF9008958D30910524F09C012C50BC
S1130510310905C0892B09F008952CE030E0822FC1
S1130520932F0895CF93DF93C1E2D1E060E08881F7
S11305300E94E70F2FEF40E060911F01809123019B
S11305400E94411061E088810E94E70F60911901C7
S113055070911A01072E000C880B990B0E94F60E5D
S1130560DF91CF9108950E9493010E9492027894A2
S113057042E050E062E971E080E00E94140D0895C9
S11305802F923F924F925F926F927F928F929F929F
S1130590AF92BF92CF92DF92EF92FF920F931F938D
S11305A0CF93DF93CDB7DEB72A970FB6F894DEBFAB
S11305B00FBECDBFCE0101960E941B09CD80D12C68
S11305C08C8190E00E9483029C010AE010E0B80153
S11305D00E942312282E392EE4E5F1E091838083D2
S11305E0A901481B590BCA01B8010E942312758343
S11305F0648300E010E07F010F2EF1E2AF2EF1E002
S1130600BF2EF02D0F2EFFE18F2EF1E09F2EF02D47
S11306100F2EF3E26F2EF1E07F2EF02DCB018C5FD5
S11306209E4F2C01D70114962D913C9115978D91D5
S11306309C912817390711F40E94920260E0F50199
S113064080810E94E70F01151105F9F4D7012C925E
S113065011963C92F201208140E0D4016C91F301A7
S113066080810E94411061E0D5018C910E94E70FC6
S11306706091190170911A01072E000C880B990BD7
S11306800E94F60E0F5F1F4FCDCFD701ED91FC9165
S1130690EC5FFE4F208140E0F4016081D3018C9136
S11306A00E94411061E0F50180810E94E70F609192
S11306B0190170911A01072E000C880B990B0E94E6
S11306C0F60E0F5F1F4F0230110509F0ABCF01E2A8
S11306D011E060E0D8018C910E94E70F20910E0197
S11306E040E060911F01809123010E94411061E06C
S11306F0F80180810E94E70F6091190170911A013D
S1130700072E000C880B990B0E94F60E2AE030E0AD
S1130710C601B9010E942312482E592EE4E5F1E0E6
S113072091838083A601481B590BCA01B9010E9419
S113073023127783668300E010E07F010F2EF1E23D
S1130740CF2EF1E0DF2EF02D0F2EFFE18F2EF1E002
S11307509F2EF02D0F2EF3E2AF2EF1E0BF2EF02DE1
S1130760CB018C5F9E4F3C01D70116962D913C9195
S113077017978D919C912817390711F40E949202C2
S113078060E0F60180810E94E70F01151105F9F47C
S1130790D7014C9211965C92F301208140E0D40180
S11307A06C91F50180810E94411061E0D6018C9129
S11307B00E94E70F6091190170911A01072E000C35
S11307C0880B990B0E94F60E0F5F1F4FCDCFD701F8
S11307D0ED91FC91EC5FFE4F208140E0F4016081DB
S11307E0D5018C910E94411061E0F60180810E9444
S11307F0E70F6091190170911A01072E000C880B04
S1130800990B0E94F60E0F5F1F4F0230110509F07D
S1130810ABCF0E94920280911801882309F410C181
S113082081E090E00E94FA010E94F2108B019C0189
S11308300F2EFAE0EF2EF12CF02DCB01B7010E9420
S11308402312E4E5F1E091838083A801481B590B4E
S1130850CA01B7010E9423127187608700E010E08B
S11308607F010F2EF1E2CF2EF1E0DF2EF02D0F2EBF
S1130870FFE18F2EF1E09F2EF02D0F2EF3E26F2E6D
S1130880F1E07F2EF02D0F2EFAE04F2E512CF02D9B
S1130890D7011896AD90BC90199781E090E00E9422
S11308A0FA01F70180819181A816B90611F40E941A
S11308B0920260E0D6018C910E94E70F81E090E003
S11308C00E94FA010115110599F50E94F2106F8337
S11308D0788789879A878F819885B2010E9423122D
S11308E0F701918380832F813885281B390BC90137
S11308F0B2010E942312FB01EC5FFE4F208140E015
S1130900D4016C91F30180810E94411061E0D60111
S11309108C910E94E70F6091190170911A01072EC2
S1130920000C880B990B0E94F60E0F5F1F4FB0CF7F
S1130930D701ED91FC91EC5FFE4F208140E0F40182
S11309406081D3018C910E94411061E0F6018081A5
S11309500E94E70F6091190170911A01072E000C93
S1130960880B990B0E94F60E0F5F1F4F0230110582
S113097009F08ECF01E211E060E0D8018C910E9471
S1130980E70F2091130140E060911F018091230142
S11309900E94411061E0F80180810E94E70F60919C
S11309A0190170911A01072E000C880B990B0E94F3
S11309B0F60E0E94920280916701811120C060E0CE
S11309C0D8018C910E94E70F2091140140E06091BE
S11309D01F01809123010E94411061E0F801808190
S11309E00E94E70F6091190170911A01072E000C03
S11309F0880B990B0E94F60E0E94920221C001E21C
S1130A0011E060E0D8018C910E94E70F209114015D
S1130A1040E060911F01809123010E94411061E038
S1130A20F80180810E94E70F6091190170911A0109
S1130A30072E000C880B990B0E94F60E0E9492025E
S1130A402A960FB6F894DEBF0FBECDBFDF91CF91CB
S1130A501F910F91FF90EF90DF90CF90BF90AF90D8
S1130A609F908F907F906F905F904F903F902F90CA
S1130A700895209168013091690180911B01909142
S1130A801C012817390781F480E00E94370D0E9469
S1130A90C002109269011092680143E050E062E9DB
S1130AA071E080E00E94140D809127010E941810CB
S1130AB0809125010E9418100895FC01918D228DCA
S1130AC0892F90E0805C9F4F821B91098F73992737
S1130AD00895FC01918D828D981731F0828DE80F75
S1130AE0F11D858D90E008958FEF9FEF0895FC012F
S1130AF0918D828D981761F0828DDF01A80FB11D51
S1130B005D968C91928D9F5F9F73928F90E0089574
S1130B108FEF9FEF089582E996E0892B49F080E0FA
S1130B2090E0892B29F00E94920681110E94000016
S1130B300895FC01848DDF01A80FB11DA35ABF4F96
S1130B408C91248D30E02F5F3F4F2F733078332307
S1130B5034F421503109206C3F6F2F5F3F4F248FB5
S1130B60A689B7898C93A089B1898C9180648C9370
S1130B70938D848D981306C00288F389E02D8081BB
S1130B808F7D80830895CF93DF93EC01888D81114D
S1130B900FC018C00FB607FC0DC0908195FF0AC0A6
S1130BA0A889B9898C9185FF05C0CE010E94990559
S1130BB0EA89FB89908195FDEDCFA889B9898C914B
S1130BC086FFE8CFDF91CF9108950F931F93CF93C2
S1130BD0DF93FC01938D848D981324C0A089B1897F
S1130BE08C9185FD31C01EC00FB607FC08C0E88992
S1130BF0F989808185FF03C0CE010E9499059C8DEF
S1130C00091791F38B8DFE01E80FF11DE35AFF4F95
S1130C1010830B8FEA89FB8980818062808381E065
S1130C20888F1BC0238D30E02F5F3F4F2F733078A8
S1130C30332334F421503109206C3F6F2F5F3F4F31
S1130C40162FEF01022FDBCFA689B7896C9300889A
S1130C50F189E02D80818064808381E090E0DF91E0
S1130C60CF911F910F9108951F920F920FB60F927B
S1130C7011242F938F939F93AF93BF93EF93FF937D
S1130C80E0917A01F0917B01808182FD14C0EAE653
S1130C90F1E0A689B7892C91818D8F5F8F73928D36
S1130CA0891771F0DF01E18DF0E0E659FE4F258FE1
S1130CB059968C9305C0E0918001F0918101808167
S1130CC0FF91EF91BF91AF919F918F912F910F90D1
S1130CD00FBE0F901F9018951F920F920FB60F9290
S1130CE011242F933F934F935F936F937F938F932D
S1130CF09F93AF93BF93EF93FF938AE691E00E9493
S1130D009905FF91EF91BF91AF919F918F917F9141
S1130D106F915F914F913F912F910F900FBE0F9064
S1130D201F9018958AE691E00E945D0521E0892BC9
S1130D3009F420E0822F0895EAE6F1E0138212829A
S1130D4088EE93E0A0E0B0E084839583A683B78324
S1130D5081E391E09183808385EC90E0958784879B
S1130D6084EC90E09787868780EC90E0918B808B71
S1130D7081EC90E0938B828B82EC90E0958B848B5A
S1130D8086EC90E0978B868B118E128E138E148EC8
S1130D90089508958F929F92AF92BF92CF92DF925F
S1130DA0EF92FF920F931F93CF93DF935C017B012C
S1130DB04C0182E0880E911C6501E5E0CE0ED11C49
S1130DC000E010E0F40161914F014AE050E0C701F6
S1130DD00E942D08EC016EE2C7010E947D078C0F72
S1130DE09D1F080F191F8C149D0461F74AE050E001
S1130DF0F5016581C7010E942D08800F911FDF91C5
S1130E00CF911F910F91FF90EF90DF90CF90BF9003
S1130E10AF909F908F900895E7E0F2E081E491E035
S1130E209183808312821382148215820895089517
S1130E300E94220F0E9417070E94B302CBE8D5E05C
S1130E400E9439052097E1F30E948B05F9CFCF92D8
S1130E50DF92EF92FF920F931F93CF93DF9341158D
S1130E605105B1F08C01E62EF72EEA01C12CD12CEC
S1130E70D7016D917D01D801ED91FC910190F08134
S1130E80E02DC8010995C80ED91E219789F702C023
S1130E90C12CD12CC601DF91CF911F910F91FF90EE
S1130EA0EF90DF90CF900895EF92FF920F931F93EE
S1130EB0CF93DF93EB012196FB016491662399F0B4
S1130EC08C01E12CF12CD801ED91FC910190F08181
S1130ED0E02DC8010995E80EF91EFE0164912196E2
S1130EE06111F1CF02C0E12CF12CC701DF91CF9148
S1130EF01F910F91FF90EF900895DC01ED91FC910B
S1130F000190F081E02D099508950F931F93CF93DD
S1130F10DF93EC016DE00E947D078C016AE0CE0155
S1130F200E947D07800F911FDF91CF911F910F9138
S1130F3008950F931F93CF93DF93EC010E945407FE
S1130F408C01CE010E948507800F911FDF91CF9104
S1130F501F910F9108954F925F926F927F929F928B
S1130F60AF92BF92CF92DF92EF92FF920F931F93B3
S1130F70CF93DF93CDB7DEB7A1970FB6F894DEBF5A
S1130F800FBECDBF5C016A017B01922E19A281E0E4
S1130F90821720F00F2EFAE09F2EF02D8E010F5DA8
S1130FA01F4F492C512C612C712CC701B601A30190
S1130FB092010E9437128C2D929E801911240150A7
S1130FC011098A3010F4805D01C0895CD8018C93CA
S1130FD0C22ED32EE42EF52EC114D104E104F10463
S1130FE021F70115110591F0F80101900020E9F7AE
S1130FF03197AF01401B510BD501ED91FC9102805B
S1131000F381E02DB801C501099502C080E090E0AC
S1131010A1960FB6F894DEBF0FBECDBFDF91CF917E
S11310201F910F91FF90EF90DF90CF90BF90AF9002
S11310309F907F906F905F904F9008952115310598
S113104049F4DC01ED91FC910190F081E02D642FD5
S1131050099508950E94AB0708959A01462F50E020
S113106060E070E00E941E080895FC019081905396
S11310709A3008F090E081818053990F292F220F34
S1131080220F920F890F0895CF92DF92EF92FF9271
S11310900F931F93CF93DF93CDB7DEB72B970FB684
S11310A0F894DEBF0FBECDBF7C016A014BE050E077
S11310B0CE0101960E947312CE010A960E94350851
S11310C0F7018083E9810E2F10E0F801E154F10962
S11310D0E331F105B8F5EC5CFF4F0C9459128A81A9
S11310E0813639F08B818E3611F087E003C086E0BB
S11310F001C081E0F701818325C082E0F70181838B
S113110021C08B81823711F088E001C084E0F701AF
S1131110818318C08B81823711F085E001C083E0A0
S1131120F70181830FC089E0F70181830BC08AE056
S1131130F701818307C08BE0F701818303C08CE052
S1131140F7018183CE0105960E943508F701828359
S113115048E050E0B601CE0101960E947312CE0120
S113116001960E943508F7018383CE0104960E94FC
S11311703508F7018483CE0107960E943508F701EC
S113118085832B960FB6F894DEBF0FBECDBFDF91DB
S1131190CF911F910F91FF90EF90DF90CF90089522
S11311A081E008951F93CF93DF93182F68E670E0D2
S11311B086E892E00E94670EC6E8D2E0E881F981F1
S11311C00190F081E02D67E0CE010995E881F98175
S11311D00190F081E02D612FCE010995CE010E948E
S11311E07D0EDF91CF911F91089568E670E086E847
S11311F092E00E94670EE0918602F09187020190CE
S1131200F081E02D60E086E892E0099586E892E0BE
S11312100E947D0E41E050E068E670E086E892E0CE
S11312200E94590E86E892E00E94AC0D91E087FD81
S113123090E0892F0895DF92EF92FF920F931F930E
S1131240CF93DF93EC0168E670E086E892E00E94B9
S1131250670EE0918602F09187020190F081E02D03
S113126060E086E892E0099586E892E00E947D0EAF
S113127047E050E068E670E086E892E00E94590E8C
S113128086E892E00E94AC0D8F77282F30E03595E8
S11312902795359527953595279535952795922F3B
S11312A0990F290F220F182F121B86E892E00E9433
S11312B0AC0D9C01332735952795359527953595A4
S11312C0279535952795922F990F290F220F082FCF
S11312D0021B86E892E00E94AC0D9C0133273595F1
S11312E02795359527953595279535952795922FEB
S11312F0990F290F220FF82EF21A86E892E00E9425
S1131300AC0D86E892E00E94AC0D9C013327359524
S11313102795359527953595279535952795922FBA
S1131320990F290F220FE82EE21A86E892E00E9414
S1131330AC0D9C0133273595279535952795359523
S1131340279535952795922F990F290F220FD82E7F
S1131350D21A86E892E00E94AC0D9C01AC0155279C
S11313605595479555954795559547955595479561
S1131370842F880F480F440F241B30E02053384F2C
S1131380203D87E0380710F0205D37402883D9825C
S1131390EA82FB820C831D83CE01DF91CF911F91E2
S11313A00F91FF90EF90DF900895EF92FF920F93CB
S11313B01F93CF937C0168E670E086E892E00E9478
S11313C0670E06E812E0D801ED91FC910190F081DE
S11313D0E02D60E0C8010995F7016581CDEC6C9FB3
S11313E0812D1124869586958695982F990F890FBE
S11313F0880F680FC8010E94000ED70114966C91E3
S11314006C9F812D1124869586958695982F990F2A
S1131410890F880F680FC8010E94000EF7016381CD
S11314206C9F812D1124869586958695982F990F0A
S1131430890F880F680FC8010E94000E60E0C80180
S11314400E94000ED70112966C916C9F912D11246D
S1131450969596959695892F880F980F990F690FF1
S1131460C8010E94000EF70161816C9F912D112427
S1131470969596959695892F880F980F990F690FD1
S1131480C8010E94000ED7016C916C9FC12D1124DC
S1131490C695C695C6958C2F880FC80FCC0F6C0FB8
S11314A0C8010E94000ED801ED91FC910190F081D9
S11314B0E02D60E0C8010995C8010E947D0ECF911E
S11314C01F910F91FF90EF900895813039F018F03B
S11314D0823051F0089510926E000895EFE6F0E026
S11314E080818D7F80830895E0E7F0E080818D7FA7
S11314F0808381E08093B000E1EBF0E08081887F1D
S1131500846080831092B3000895CF93C82F809194
S11315102B018C1308C0EEE6F2E0E4918E2F9FEFCE
S113152090932B0101C08FEF0E94650A60E08C2F1D
S11315300E94E70FCF9108951F920F920FB60F925A
S113154011242F933F934F935F936F937F938F93C4
S11315509F93AF93BF93EF93FF9380911002909169
S11315601102A0911202B0911302892B8A2B8B2BAA
S113157051F180910D02E0910E02F0910F029081E1
S1131580892780838091100290911102A091120208
S1131590B0911302181619061A061B06C4F480919A
S11315A0100290911102A0911202B09113020197BE
S11315B0A109B1098093100290931102A093120221
S11315C0B093130204C080912B010E94850AFF91FD
S11315D0EF91BF91AF919F918F917F916F915F91A7
S11315E04F913F912F910F900FBE0F901F90189520
S11315F01092810281E080937F0210927E0261E06A
S113160082E10E94E70F61E083E10E94E70FE9EBCA
S1131610F0E080818E7F808380818D7F808388E469
S11316208093B80085E48093BC000895413208F0AB
S113163046C0909181029111FCCF31E03093810238
S113164020937F022FEF2093140210925902240F4B
S1131650209358023093800220918002880F822BBD
S11316608093800280917E02813051F410927E0238
S1131670809180028093BB0085EC8093BC0003C002
S113168085EE8093BC00809181028130E1F38091EA
S11316905902841710F440915902442389F0AAE5B1
S11316A0B2E0FB018FEF840F90E00196680F791F81
S11316B08D918193E617F707D9F7942F01C090E035
S11316C0892F08950F93413208F051C0309181025F
S11316D03111FCCF92E09093810200937F029FEF3F
S11316E0909314021092590240935802442371F0CB
S11316F0FB01AAE5B2E0415050E04F5F5F4F640F39
S1131700751F91919D93E617F707D9F71092800200
S113171090918002880F892B8093800280917E02B1
S1131720813051F410927E02809180028093BB003C
S113173085EC8093BC0003C085EE8093BC0022231B
S113174041F080918102823021F4809181028230C3
S1131750E1F3809114028F3F79F08091140280327A
S113176041F080911402803331F034E005C031E05F
S113177003C032E001C033E0832F0F91089561323A
S1131780C8F4209181022430B9F4609336026623B0
S1131790A9F0FC01A8E3B2E06150262F30E02F5FEE
S11317A03F4F280F391F91919D93E217F307D9F703
S11317B080E0089581E0089582E0089580E008952E
S11317C085ED8093BC00ECEBF0E0808184FDFDCFDF
S11317D010928102089585EC8093BC0010928102DE
S11317E008951F920F920FB60F9211242F933F93D7
S11317F04F935F936F937F938F939F93AF93BF9315
S1131800EF93FF938091B900E82FE87F8E2F90E04B
S1131810893C910508F0F7C0FC01E95BFF4F0C948B
S11318205912809180028093BB0085EC8093BC00A8
S1131830EAC09091590280915802981780F4E0917F
S1131840590281E08E0F80935902F0E0E65AFD4F71
S113185080818093BB0085EC8093BC00D4C08091D0
S11318607F02882319F00E94E00BCDC081E08093B1
S11318707E0284EA8093BC0010928102C4C080E29C
S1131880809314020E94E00BBEC080E38093140294
S11318900E94E00BB8C088E3809314020E94EB0B13
S11318A0B2C0E091590281E08E0F80935902809179
S11318B0BB00F0E0E65AFD4F80839091590280917D
S11318C05802981720F485EC8093BC009CC085E8EE
S11318D08093BC0098C0E091590281E08E0F809300
S11318E059028091BB00F0E0E65AFD4F808380915D
S11318F07F02882319F00E94E00B85C081E0809369
S11319007E0284EA8093BC00109281027CC00E9413
S1131910E00B79C083E0809381021092150285EC7C
S11319208093BC0070C080911502803280F4E091F5
S1131930150281E08E0F809315028091BB00F0E0C8
S1131940EA5EFD4F808385EC8093BC005CC085E833
S11319508093BC0058C080911502803230F4E0912D
S11319601502F0E0EA5EFD4F10820E94E00B6091E8
S1131970150270E0E0917A02F0917B0286E192E038
S11319800995109215020E94EB0B3DC085E88093E7
S1131990BC0039C084E08093810210923702109217
S11319A03602E0917C02F0917D0209958091360225
S11319B0811105C081E08093360210923802E091D3
S11319C0370281E08E0F80933702F0E0E85CFD4F30
S11319D080818093BB0090913702809136029817E2
S11319E020F485EC8093BC000EC085E88093BC0095
S11319F00AC085EC8093BC001092810204C010924E
S1131A0014020E94E00BFF91EF91BF91AF919F915F
S1131A108F917F916F915F914F913F912F910F9093
S1131A200FBE0F901F901895823000F5E82FF0E05C
S1131A30EE0FFF1FEE57FD4F71836083882319F06B
S1131A40813049F00895E9E6F0E080818C7F482BED
S1131A504083E89A0895E9E6F0E08081440F551F39
S1131A60440F551F837F482B4083E99A08958230A1
S1131A7080F4882319F0813019F003C0E89801C07C
S1131A80E998E82FF0E0EE0FFF1FEE57FD4F1182AB
S1131A90108208951F920F920FB60F9211242F9364
S1131AA03F934F935F936F937F938F939F93AF93E2
S1131AB0BF93EF93FF938091820290918302892BCD
S1131AC029F0E0918202F09183020995FF91EF9150
S1131AD0BF91AF919F918F917F916F915F914F9142
S1131AE03F912F910F900FBE0F901F9018951F924A
S1131AF00F920FB60F9211242F933F934F935F933E
S1131B006F937F938F939F93AF93BF93EF93FF93C1
S1131B108091840290918502892B29F0E0918402BE
S1131B20F09185020995FF91EF91BF91AF919F913B
S1131B308F917F916F915F914F913F912F910F9072
S1131B400FBE0F901F9018958091B60290E02091DF
S1131B50B702821B910908959091B7028091B60251
S1131B60981750F4E92FF0E0E854FD4F208130E05D
S1131B709F5F9093B70202C02FEF3FEFC901089512
S1131B80E091B7028091B602E81730F4F0E0E8542F
S1131B90FD4F808190E008958FEF9FEF08950895A1
S1131BA0CF92DF92EF92FF920F931F93CF93DF9325
S1131BB08C01CB016A01209192022223A1F04115EC
S1131BC05105A1F0EB017B01E40EF51E6991D801EA
S1131BD0ED91FC910190F081E02DC8010995CE159D
S1131BE0DF05A1F703C0642F0E94BF0BC601DF917C
S1131BF0CF911F910F91FF90EF90DF90CF900895B8
S1131C00CF93DF931F92CDB7DEB7FC016983909128
S1131C1092029923D9F090919302903238F081E0A6
S1131C2090E09383828380E090E017C080919402D7
S1131C30E82FF0E0EB56FD4F998190838F5F8093FE
S1131C4094028093930281E090E007C061E0CE01AA
S1131C5001960E94BF0B81E090E00F90DF91CF913D
S1131C600895FC011382128288EE93E0A0E0B0E0B4
S1131C7084839583A683B78387E491E091838083EB
S1131C8008951092B7021092B60210929402109224
S1131C9093020E94F80A0895862F413208F040E228
S1131CA068EB72E00E94160B1092B7028093B602A2
S1131CB0089521E00E944C0E089581E080939202E1
S1131CC06093B502109294021092930208950E94B8
S1131CD05D0E08950F93062F21E04091930265E96C
S1131CE072E08091B5020E94620B109294021092ED
S1131CF09302109292020F91089561E00E946A0E7D
S1131D00089586E892E00E94310E08951F920F9282
S1131D100FB60F9211242F933F938F939F93AF93FA
S1131D20BF938091D9029091DA02A091DB02B09125
S1131D30DC023091D80223E0230F2D3720F40196E2
S1131D40A11DB11D05C026E8230F0296A11DB11DDA
S1131D502093D8028093D9029093DA02A093DB02F5
S1131D60B093DC028091DD029091DE02A091DF024B
S1131D70B091E0020196A11DB11D8093DD02909304
S1131D80DE02A093DF02B093E002BF91AF919F9176
S1131D908F913F912F910F900FBE0F901F90189528
S1131DA03FB7F8948091DD029091DE02A091DF02AA
S1131DB0B091E00226B5A89B05C02F3F19F001960B
S1131DC0A11DB11D3FBFBA2FA92F982F8827820FBD
S1131DD0911DA11DB11DBC01CD01660F771F881F88
S1131DE0991F660F771F881F991F0895CF92DF925E
S1131DF0EF92FF92CF93DF936B017C010E94D00E90
S1131E00EB01C114D104E104F104A9F00E94C90654
S1131E100E94D00E6C1B7D0B683E734038F081E04D
S1131E20C81AD108E108F108C851DC4FC114D10423
S1131E30E104F10459F7DF91CF91FF90EF90DF9027
S1131E40CF900895789484B5826084BD84B5816010
S1131E5084BD85B5826085BD85B5816085BDEEE6AE
S1131E60F0E0808181608083E1E8F0E0108280818D
S1131E7082608083808181608083E0E8F0E08081FB
S1131E8081608083E1EBF0E0808184608083E0EB1B
S1131E90F0E0808181608083EAE7F0E08081846003
S1131EA0808380818260808380818160808380815F
S1131EB0806880831092C10008958E3008F08E509F
S1131EC0877090912C0140E4949F90011124282B59
S1131ED020937C00EAE7F0E0808180648083808145
S1131EE086FDFDCF809178002091790090E0922BBF
S1131EF00895833069F028F48130B1F08230C1F064
S1131F0008958730C9F08830E9F0843001F506C0BF
S1131F10E0E8F0E080818F7780830895E0E8F0E0E6
S1131F2080818F7D8083089584B58F7784BD0895E3
S1131F3084B58F7D84BD0895E0EBF0E080818F77D8
S1131F4080830895E0EBF0E080818F7D80830895A5
S1131F50CF93DF9390E0FC01ED57FD4F2491FC01FA
S1131F60E956FD4F8491882379F190E0880F991FF9
S1131F70FC01E154FD4FA591B491FC01EB54FD4FDC
S1131F80C591D49161110CC09FB7F8948C91E22F44
S1131F90E0958E238C932881E223E8839FBF14C0AD
S1131FA0623061F49FB7F8943C91822F809583232B
S1131FB08C93E881E22BE8839FBF06C08FB7F89427
S1131FC0EC91E22BEC938FBFDF91CF9108951F9397
S1131FD0CF93DF93282F30E0F901E159FD4F84912D
S1131FE0F901ED57FD4F1491F901E956FD4FC491E4
S1131FF0CC23D1F0D62F81110E94790FEC2FF0E081
S1132000EE0FFF1FEB54FD4FA591B4918FB7F894D9
S1132010D11106C09C91E12FE095E923EC9303C014
S1132020EC91E12BEC938FBFDF91CF911F91089539
S1132030CF93DF93282F30E0F901E159FD4F8491CC
S1132040F901ED57FD4FD491F901E956FD4FC491C3
S1132050CC2391F081110E94790FEC2FF0E0EE0F68
S1132060FF1FE555FD4FA591B491EC91ED2381E05F
S113207090E021F480E002C080E090E0DF91CF9115
S11320800895BF92CF92DF92EF92FF920F931F9326
S1132090CF93DF93B82E162F042FC7E0D0E0E22EA3
S11320A0F12C0F2EF7E0CF2ED12CF02D01110EC004
S11320B0C6018C1B9D0BB70102C0759567958A9567
S11320C0E2F761708B2D0E94E70F0BC0B7010C2E55
S11320D002C0759567950A94E2F761708B2D0E9492
S11320E0E70F61E0812F0E94E70F60E0812F0E94DB
S11320F0E70F2197D8F6DF91CF911F910F91FF90B1
S1132100EF90DF90CF90BF9008955058BB27AA2737
S11321100E949D100C947C110E946E1138F00E9454
S1132120751120F039F49F3F19F426F40C946B11C7
S11321300EF4E095E7FB0C946511E92F0E948D11D4
S113214058F3BA17620773078407950720F079F4E8
S1132150A6F50C94AF110EF4E0950B2EBA2FA02D1A
S11321600B01B90190010C01CA01A0011124FF2740
S1132170591B99F0593F50F4503E68F11A16F0403B
S1132180A22F232F342F4427585FF3CF469537953A
S11321902795A795F0405395C9F77EF41F16BA0BFF
S11321A0620B730B840BBAF09150A1F0FF0FBB1FAD
S11321B0661F771F881FC2F70EC0BA0F621F731FF6
S11321C0841F48F4879577956795B795F7959E3F53
S11321D008F0B0CF9395880F08F09927EE0F9795E4
S11321E0879508950E94F9106894B1110C94B01168
S11321F008950E94951188F09F5798F0B92F992758
S1132200B751B0F0E1F0660F771F881F991F1AF0DD
S1132210BA95C9F714C0B13091F00E94AF11B1E082
S113222008950C94AF11672F782F8827B85F39F081
S1132230B93FCCF3869577956795B395D9F73EF476
S113224090958095709561957F4F8F4F9F4F08951E
S1132250E89409C097FB3EF490958095709561953C
S11322607F4F8F4F9F4F9923A9F0F92F96E9BB27F2
S11322709395F695879577956795B795F111F8CF6E
S1132280FAF4BB0F11F460FF1BC06F5F7F4F8F4FD9
S11322909F4F16C0882311F096E911C0772321F0CF
S11322A09EE8872F762F05C0662371F096E8862F67
S11322B070E060E02AF09A95660F771F881FDAF7BE
S11322C0880F9695879597F9089597F99F6780E801
S11322D070E060E008959FEF80EC089500240A9474
S11322E01616170618060906089500240A941216ED
S11322F01306140605060895092E0394000C11F420
S1132300882352F0BB0F40F4BF2B11F460FF04C0CC
S11323106F5F7F4F8F4F9F4F089557FD9058440F25
S1132320551F59F05F3F71F04795880F97FB991F30
S113233061F09F3F79F087950895121613061406ED
S1132340551FF2CF4695F1DF08C01616170618067A
S1132350991FF1CF86957105610508940895E89455
S1132360BB2766277727CB0197F908950E94C911E7
S11323700C947C110E946E1138F00E94751120F0AB
S1132380952311F00C9465110C946B1111240C9489
S1132390B0110E948D1170F3959FC1F3950F50E019
S11323A0551F629FF001729FBB27F00DB11D639F03
S11323B0AA27F00DB11DAA1F649F6627B00DA11DA9
S11323C0661F829F2227B00DA11D621F739FB00D4F
S11323D0A11D621F839FA00D611D221F749F3327BF
S11323E0A00D611D231F849F600D211D822F762F58
S11323F06A2F11249F5750409AF0F1F088234AF035
S1132400EE0FFF1FBB1F661F771F881F91505040A0
S1132410A9F79E3F510580F00C9465110C94B011FE
S11324205F3FE4F3983ED4F3869577956795B79527
S1132430F795E7959F5FC1F7FE2B880F911D969541
S1132440879597F9089597FB072E16F4009407D003
S113245077FD09D00E945F1207FC05D03EF49095E9
S113246081959F4F0895709561957F4F0895A1E2DE
S11324701A2EAA1BBB1BFD010DC0AA1FBB1FEE1FFA
S1132480FF1FA217B307E407F50720F0A21BB30B45
S1132490E40BF50B661F771F881F991F1A9469F7C1
S11324A060957095809590959B01AC01BD01CF011D
S11324B00895EE0FFF1F0590F491E02D0994AA1BD7
S11324C0BB1B51E107C0AA1FBB1FA617B70710F01B
S11324D0A61BB70B881F991F5A95A9F7809590954D
S11324E0BC01CD010895FB01DC0102C005900D92F1
S10F24F041505040D8F70895F894FFCFF5
S11324FC1011121340730A223124047200303F115C
S113250C0C4D40380F10180001F40114000F000793
S113251C00060005000A0009000200FF010000008B
S113252C00E50527075D0577056905C3050000006F
S113253C00CA0600000000000ED00DA40DAC0DC0A6
S107254C0DCF0D009E
S9030000FC
