:100000000C948A010C94850E0C94B20E0C94B201DF
:100010000C94B2010C94B2010C94B2010C94EA0B52
:100020000C94B2010C94B2010C94B2010C94B20184
:100030000C94B2010C94B2010C94B2010C94B20174
:100040000C94C10F0C94B2010C94CE070C940608CA
:100050000C94B2010C94B2010C94B2010C94B20154
:100060000C943F0D0C94B201640B850B850B820B35
:10007000850B600B850B850B850B520B850B850B58
:100080006D0B7E0B7A0B850B850B850B760B4D0E5E
:10009000510E510E510E510E510E510E510E5F0D5B
:1000A000510E510E510E510E510E510E510E5F0D4B
:1000B000510E510E510E510E510E510E510E670D33
:1000C000510E510E510E510E510E510E510E8D0DFD
:1000D000510E510E510E510E510E510E510E670D13
:1000E000510E510E510E510E510E510E510E930DD7
:1000F000510E510E510E510E510E510E510E990DC1
:10010000510E510E510E510E510E510E510EAB0D9E
:10011000510E510E510E510E510E510E510ED50D64
:10012000510E510E510E510E510E510E510E9F0D8A
:10013000510E510E510E510E510E510E510EB90D60
:10014000510E510E510E510E510E510E510ED80D31
:10015000510E510E510E510E510E510E510ED80D21
:10016000510E510E510E510E510E510E510ED80D11
:10017000510E510E510E510E510E510E510ED80D01
:10018000510E510E510E510E510E510E510EE10DE8
:10019000510E510E510E510E510E510E510E140EA4
:1001A000510E510E510E510E510E510E510EE10DC8
:1001B000510E510E510E510E510E510E510E140E84
:1001C000510E510E510E510E510E510E510EF90D90
:1001D000510E510E510E510E510E510E510E180E60
:1001E000510E510E510E510E510E510E510E180E50
:1001F000510E510E510E510E510E510E510E2D0E2B
:10020000510E510E510E510E510E510E510E470E00
:10021000510E510E510E510E510E510E510E470EF0
:10022000C2B0432000504D00414D002054696D651F
:100230002F446174653A200054696D652073686FBE
:10024000756C64206265207365742E0D0A00546914
:100250006D6520646964206E6F742073657420631B
:100260006F72726563746C792C20636865636B20B0
:10027000776972696E672E0D0A00525443206973C4
:10028000204E4F542072756E6E696E67212C20537C
:10029000657474696E6720746F20004F6374203238
:1002A0003420323031350032323A35343A30310090
:1002B0000200000008000201000003040700000023
:1002C0000000000000010204081020408001020428
:1002D000081020010204081020040404040404048B
:1002E00004020202020202030303030303000000EC
:1002F0000023002600290000000000250028002B14
:100300000000000000240027002A0000DD04360859
:10031000A608BC0F11241FBECFEFD4E0DEBFCDBFB7
:1003200011E0A0E0B1E0E4E3F8E202C005900D9234
:10033000A035B107D9F722E0A0E5B1E001C01D92D8
:10034000A03EB207E1F711E0CAE8D1E004C021976E
:10035000FE010E94F513C638D107C9F70E94B20802
:100360000C9418140C94000085E892E00E947C0F15
:100370000895FC019281892F8695869586958E71C8
:10038000282F220F220F820F9F70890F0895FC01E2
:100390009381892F8695869586958E71282F220FB9
:1003A000220F820F9F70890F0895FC019481892F7D
:1003B0008695869586958E71282F220F220F820FA3
:1003C0009F70890F0895FC019681892F86958695E7
:1003D00086958E71282F220F220F820F9F70890F12
:1003E0000895FC019781892F8695869586958E7153
:1003F000282F220F220F820F9F70890F0895FC0172
:100400009085892F8695869586958E71282F220F47
:10041000220F820F9F70980F892F90E08053984F82
:1004200008952DEC629F212D112426952695269561
:10043000422F440F342F330F330F340F631B30E13F
:10044000239F600D1124FC01628308952DEC629FAF
:10045000212D1124269526952695422F440F342FC1
:10046000330F330F340F631B30E1239F600D1124D2
:10047000FC01638308952DEC629F212D11242695A4
:1004800026952695422F440F342F330F330F340F08
:10049000631B30E1239F600D1124FC0164830895E8
:1004A0002DEC629F212D1124269526952695422F0D
:1004B000440F342F330F330F340F631B30E1239F6E
:1004C000600D1124FC01668308952DEC629F212D9F
:1004D0001124269526952695422F440F342F330F4D
:1004E000330F340F631B30E1239F600D1124FC0197
:1004F00067830895FC01603D87E0780710F0605D38
:1005000077409DEC699F912D11249695969596952F
:10051000392F330F232F220F220F230F621B80E16D
:10052000989F600D1124608708950F931F93CF93B8
:10053000DF938C0168E670E085E892E00E94A20FEC
:10054000E0918502F09186020190F081E02D60E05B
:1005500085E892E0099585E892E00E94B80F47E0AF
:1005600050E068E670E085E892E00E94940FE801B0
:100570002296075F1F4F85E892E00E94DF0E892BCD
:1005800029F085E892E00E94E70E88832196C01743
:10059000D10789F7DF91CF911F910F910895CF93E4
:1005A000C62F68E670E085E892E00E94A20F6C2FEB
:1005B00085E892E00E943B0F85E892E00E94B80F28
:1005C00041E050E068E670E085E892E00E94940F18
:1005D00085E892E00E94E70ECF9108956FE00E94B7
:1005E000CF028095881F8827881F0895CF93DF93B7
:1005F000D62FC42F68E670E085E892E00E94A20F33
:100600006D2F85E892E00E943B0F6C2F85E892E009
:100610000E943B0F85E892E00E94B80FDF91CF91D6
:100620000895CF93DF93EC016EE00E94CF0240E08B
:100630006EE0CE010E94F602DF91CF910895EF9215
:10064000FF920F931F93CF93DF937C0168E670E0D6
:1006500085E892E00E94A20FE0918502F091860267
:100660000190F081E02D60E085E892E00995E701D6
:1006700022968701075F1F4F699185E892E00E94EB
:100680003B0FC017D107C1F785E892E00E94B80F71
:100690006FE0C7010E94CF0240E06FE0C7010E94F7
:1006A000F602DF91CF911F910F91FF90EF90089587
:1006B0000895CF93DF93EC0165E070E080E090E077
:1006C0000E9431108895BE01DD0F880B990B0E94A6
:1006D0003110DF91CF910895EF92FF920F931F9306
:1006E000CF93DF9310926101109262011092630127
:1006F00010926401892B09F04DC0C4E6D0E002E0FD
:1007000011E0F80180810E949810BC01990F880BBC
:10071000990B0E94981220916101309162014091E1
:100720006301509164010E947D1160936101709397
:1007300062018093630190936401219711F79B01FB
:10074000AC016DE37AE08BE391E40E94EE1120E0CE
:1007500030E040E854E40E944D1320E030E048ECE3
:1007600052E40E944D132DEC3CEC4CEE50E40E9400
:100770007C11062F172F282F392F00936501109316
:1007800066012093670130936801562F472F382F59
:10079000292F35C0C4E6D0E000E010E00F2EF2E0D3
:1007A000EF2EF1E0FF2EF02DF70180810E949810CE
:1007B000080F191F2197C1F7C80164E670E00E9475
:1007C000BF13072E000C880B990B0E94981220E093
:1007D00030E44CE950E40E944D1320E030E040E268
:1007E00051E40E947D110E946012072E000C880BBC
:1007F000990B0E949812562F472F382F292F652FBB
:10080000742F832F922FDF91CF911F910F91FF9023
:10081000EF9008958D30910524F09C012C50310902
:1008200005C0892B09F008952CE030E0822F932F2A
:10083000089580E591E00E9495026BE272E089E6FE
:1008400091E00E94EE0880E591E00E94FF014AE0FD
:1008500050E0BC0189E691E00E94030A6FE289E65C
:1008600091E00E942D0980E591E00E94F1014AE0AB
:1008700050E0682F89E691E00E94FB096FE289E66B
:1008800091E00E942D0980E591E00E94E3014AE099
:1008900050E0682F89E691E00E94FB0960E289E65A
:1008A00091E00E942D0980E591E00E94D50190E041
:1008B0009C012C5031092C30310538F421E030E016
:1008C0003093600120935F0104C010926001109288
:1008D0005F010E940A044AE050E0BC0189E691E011
:1008E0000E94E4096AE389E691E00E942D0980E50F
:1008F00091E00E94C7014AE050E0682F89E691E04C
:100900000E94FB096AE389E691E00E942D0980E5D7
:1009100091E00E94B9014AE050E0682F89E691E039
:100920000E94FB0962E171E089E691E00E941709EB
:1009300080915F0190916001892B39F468E272E047
:1009400089E691E00E94EE0806C065E272E089E661
:1009500091E00E94EE0862E171E089E691E00E9478
:10096000170980E090E00E946C03AB01BC0122E01B
:1009700030E089E691E00E94150B60E272E089E6C2
:1009800091E00E94EE086091590170915A014AE08D
:1009900050E089E691E00E94E4098091590190912C
:1009A0005A01019690935A018093590164E171E0D4
:1009B00089E691E00E941709089580E591E00E9480
:1009C000B401089580E591E00E94950280E591E0F0
:1009D0000E94B90190E0209100013091010182173D
:1009E000930724F410925E0110925D0180E591E07E
:1009F0000E94B90190E020915D0130915E01821B5F
:100A0000930B2091000130910101821793077CF034
:100A10000E94190480E591E00E94B90190E0909352
:100A20005E0180935D0189E691E00E94F406809169
:100A30000C010E94531180910A010E94531180E021
:100A400090E00E94590360915B0170915C014AE063
:100A500050E089E691E00E94E40980915B01909169
:100A60005C01099721F410925C0110925B01809166
:100A70005B0190915C01019690935C0180935B0116
:100A80000895EF92FF920F931F93CF93DF937B0113
:100A9000142F682F85E892E00E94980F112381F0AF
:100AA000E7011150012F10E00F5F1F4F0E0D1F1DAA
:100AB000699185E892E00E943B0FC017D107C1F70A
:100AC00085E892E00E94B80FDF91CF911F910F91BE
:100AD000FF90EF900895CF93DF9300D0CDB7DEB7AE
:100AE0009EE099838A8342E0BE016F5F7F4F88E674
:100AF0000E9441050F900F90DF91CF91089580954E
:100B00000E946B050895CF93DF9300D000D000D0F2
:100B1000CDB7DEB726E040E052EC61E070E089E658
:100B200091E00E94650785E892E00E947C0F88B101
:100B3000807288B988B1807188B980E591E00E949F
:100B4000110360E080910E010E94E31061E080914A
:100B500008010E94E31061E0809104010E94E3100B
:100B600061E0809106010E94E31060E080910C0139
:100B70000E94E31060E080910A010E94E31060E0AF
:100B8000809102010E94E31080E591E00E94EE0254
:100B9000811184C047EA52E06BE972E0CE01019610
:100BA0000E94270B6AE772E089E691E00E94EE0856
:100BB0004AE050E06B8189E691E00E94FB0967E121
:100BC00071E089E691E00E9417094AE050E06A81ED
:100BD00089E691E00E94FB0967E171E089E691E016
:100BE0000E941709698170E06053784F4AE050E035
:100BF00089E691E00E94030A62E171E089E691E0F2
:100C00000E9417094AE050E06C8189E691E00E9459
:100C1000FB0969E171E089E691E00E9417094AE069
:100C200050E06D8189E691E00E94FB0969E171E085
:100C300089E691E00E9417094AE050E06E8189E65A
:100C400091E00E94FB0964E171E089E691E00E9475
:100C500017096E8180E591E00E9411026D8180E5A7
:100C600091E00E9426026C8180E591E00E943B02A7
:100C70006B8180E591E00E9450026A8180E591E0FD
:100C80000E946502698170E06053784F80E591E0D1
:100C90000E947A0280E591E00E941F036AE070E002
:100CA00080E090E00E94311080E591E00E94EE0229
:100CB000811107C06EE472E089E691E00E94EE08BF
:100CC00006C068E372E089E691E00E94EE088CE0DD
:100CD0000E947F0580E00E946B056AE070E080E082
:100CE00090E00E94311083B7817F846083BF83B717
:100CF000816083BF26960FB6F894DEBF0FBECDBFCE
:100D0000DF91CF9108950E948305789443E050E0ED
:100D100068E573E080E00E94620E0895FC01918D09
:100D2000228D892F90E0805C9F4F821B91098F73E9
:100D300099270895FC01918D828D981731F0828D4D
:100D4000E80FF11D858D90E008958FEF9FEF0895D6
:100D5000FC01918D828D981761F0828DDF01A80FC3
:100D6000B11D5D968C91928D9F5F9F73928F90E0E5
:100D700008958FEF9FEF08958CE298E0892B49F05A
:100D800080E090E0892B29F00E942C0881110E94BC
:100D900000000895FC01848DDF01A80FB11DA35A46
:100DA000BF4F8C91248D30E02F5F3F4F2F733078F1
:100DB000332334F421503109206C3F6F2F5F3F4FB4
:100DC000248FA689B7898C93A089B1898C9180647E
:100DD0008C93938D848D981306C00288F389E02D3F
:100DE00080818F7D80830895CF93DF93EC01888D80
:100DF00081110FC018C00FB607FC0DC0908195FF80
:100E00000AC0A889B9898C9185FF05C0CE010E94CE
:100E1000CA06EA89FB89908195FDEDCFA889B98939
:100E20008C9186FFE8CFDF91CF9108950F931F93A8
:100E3000CF93DF93FC01938D848D981324C0A089F8
:100E4000B1898C9185FD31C01EC00FB607FC08C06A
:100E5000E889F989808185FF03C0CE010E94CA0616
:100E60009C8D091791F38B8DFE01E80FF11DE35A5C
:100E7000FF4F10830B8FEA89FB898081806280831A
:100E800081E0888F1BC0238D30E02F5F3F4F2F7391
:100E90003078332334F421503109206C3F6F2F5FB9
:100EA0003F4F162FEF01022FDBCFA689B7896C9336
:100EB0000088F189E02D80818064808381E090E06A
:100EC000DF91CF911F910F910895BF92CF92DF9242
:100ED000EF92FF920F931F93CF93DF93EC016A0180
:100EE0007B01B22EE889F98982E080834115514E59
:100EF00061057105B1F060E079E08DE390E0A70154
:100F000096010E94D31389019A0101501109210908
:100F100031093695279517950795011580E1180732
:100F2000A8F0E889F989108260E874E88EE190E021
:100F3000A70196010E94D313DA01C9010197A10903
:100F4000B109B695A795979587958C01EC85FD8598
:100F50001083EE85FF850083188EEC89FD89B082B1
:100F6000EA89FB89808180618083EA89FB898081AD
:100F700088608083EA89FB89808180688083EA8930
:100F8000FB8980818F7D8083DF91CF911F910F91AD
:100F9000FF90EF90DF90CF90BF9008951F920F9237
:100FA0000FB60F9211242F938F939F93AF93BF93FC
:100FB000EF93FF93E0917901F0917A01808182FDB6
:100FC00014C0E9E6F1E0A689B7892C91818D8F5F85
:100FD0008F73928D891771F0DF01E18DF0E0E75991
:100FE000FE4F258F59968C9305C0E0917F01F091BB
:100FF00080018081FF91EF91BF91AF919F918F917F
:101000002F910F900FBE0F901F9018951F920F9267
:101010000FB60F9211242F933F934F935F936F93CB
:101020007F938F939F93AF93BF93EF93FF9389E643
:1010300091E00E94CA06FF91EF91BF91AF919F91FD
:101040008F917F916F915F914F913F912F910F9071
:101050000FBE0F901F90189589E691E00E948E06B2
:1010600021E0892B09F420E0822F0895E9E6F1E0E0
:101070001382128288EE93E0A0E0B0E0848395832F
:10108000A683B7838FE191E09183808385EC90E024
:101090009587848784EC90E09787868780EC90E042
:1010A000918B808B81EC90E0938B828B82EC90E033
:1010B000958B848B86EC90E0978B868B118E128EAD
:1010C000138E148E089508958F929F92AF92BF92BF
:1010D000CF92DF92EF92FF920F931F93CF93DF9304
:1010E0005C017B014C0182E0880E911C6501E5E00A
:1010F000CE0ED11C00E010E0F40161914F014AE0F6
:1011000050E0C7010E94FB09EC016EE2C7010E949A
:101110002D098C0F9D1F080F191F8C149D0461F75A
:101120004AE050E0F5016581C7010E94FB09800F8C
:10113000911FDF91CF911F910F91FF90EF90DF9062
:10114000CF90BF90AF909F908F900895E6E0F2E02F
:101150008FE291E091838083128213821482158240
:10116000089508950E945D100E94B1080E948306B0
:10117000CCEBD6E00E94E2042097E1F30E94BC068B
:10118000F9CFCF92DF92EF92FF920F931F93CF93FD
:10119000DF9341155105B1F08C01E62EF72EEA01DF
:1011A000C12CD12CD7016D917D01D801ED91FC911D
:1011B0000190F081E02DC8010995C80ED91E219734
:1011C00089F702C0C12CD12CC601DF91CF911F91AC
:1011D0000F91FF90EF90DF90CF900895EF92FF92E4
:1011E0000F931F93CF93DF93EB012196FB01649143
:1011F000662399F08C01E12CF12CD801ED91FC9142
:101200000190F081E02DC8010995E80EF91EFE015C
:10121000649121966111F1CF02C0E12CF12CC7013C
:10122000DF91CF911F910F91FF90EF90089561157D
:10123000710581F0FB0101900020E9F73197AF01C2
:10124000461B570BDC01ED91FC910280F381E02DF0
:101250000995089580E090E00895DC01ED91FC91FE
:101260000190F081E02D099508954F925F926F9261
:101270007F929F92AF92BF92CF92DF92EF92FF92B6
:101280000F931F93CF93DF93CDB7DEB7A1970FB620
:10129000F894DEBF0FBECDBF5C016A017B01922EC8
:1012A00019A281E0821720F00F2EFAE09F2EF02D78
:1012B0008E010F5D1F4F492C512C612C712CC701E1
:1012C000B601A30192010E94D3138C2D929E801926
:1012D0001124015011098A3010F4805D01C0895C2D
:1012E000D8018C93C22ED32EE42EF52EC114D10436
:1012F000E104F10421F70115110591F0F8010190C5
:101300000020E9F73197AF01401B510BD501ED915A
:10131000FC910280F381E02DB801C501099502C05E
:1013200080E090E0A1960FB6F894DEBF0FBECDBF6F
:10133000DF91CF911F910F91FF90EF90DF90CF90B1
:10134000BF90AF909F907F906F905F904F90089567
:10135000CF92DF92EF92FF920F931F93CF93DF9381
:10136000EC016A017B012115310541F4E881F98125
:101370000190F081E02D642F09951DC02A303105C0
:10138000C1F4772394F46DE20E942D098C01442767
:101390005527BA014C195D096E097F092AE0CE0173
:1013A0000E943509800F911F06C02AE00E9435096E
:1013B00002C00E943509DF91CF911F910F91FF90DC
:1013C000EF90DF90CF9008959A01AB01770F660BF5
:1013D000770B0E94A80908952115310549F4DC0115
:1013E000ED91FC910190F081E02D642F0995089515
:1013F0000E94350908959A01462F50E060E070E0A0
:101400000E94EC0908959A01AB0160E070E00E942F
:10141000EC0908954F925F927F928F929F92AF92C4
:10142000BF92CF92DF92EF92FF920F931F93CF93D1
:10143000DF9300D000D0CDB7DEB78C014A015B014D
:10144000722E9A01AB01C501B4010E94BA13882320
:1014500031F061E371E0C8010E941709D2C0750143
:101460006401E894F7F82FEF3FEF4FE75FE7C7011C
:10147000B6010E94BA13811110C02FEF3FEF4FE762
:101480005FE7C701B6010E94E911181634F465E35D
:1014900071E0C8010E941709B4C02FEF3FEF4FE77A
:1014A0005FE4C501B4010E944813181634F469E3DF
:1014B00071E0C8010E941709A4C02FEF3FEF4FE76A
:1014C0005FECC501B4010E94E911882334F469E39B
:1014D00071E0C8010E94170994C020E030E0A90122
:1014E000C501B4010E94E911882354F46DE2C801DA
:1014F0000E942D097C01B7FAB094B7F8B09402C0ED
:10150000E12CF12C772009F467C0D12C60E070E069
:1015100080E09FE320E030E040E251E40E94EE11E1
:10152000D394D710F7CF2BC020E030E040E251E455
:10153000C501B4010E944D134B015C010E94601271
:101540006B01770FEE08FF082AE030E0B701A60133
:10155000C8010E94A809480E591EC701B6010E9481
:1015600098129B01AC01C501B4010E947C114B0192
:101570005C017A947110D8CF842D952D42C09B01C7
:10158000AC01C501B4010E947D114B015C010E94B8
:10159000671269837A838B839C830E9496129B01D6
:1015A000AC01C501B4010E947C114B015C012AE031
:1015B00030E049815A816B817C81C8010E94EC092D
:1015C0006C016DE371E0C8010E9417098C0D9D1D2F
:1015D0002C014E0C5F1CA8CF20E030E040E05FE320
:1015E000C501B4010E947D110E946712AB01BC01CC
:1015F0002AE030E0C8010E94EC092C014E0C5F1C6F
:10160000BBCF0F900F900F900F90DF91CF911F9154
:101610000F91FF90EF90DF90CF90BF90AF909F9091
:101620008F907F905F904F9008950E940A0A0895CE
:10163000FC01908190539A3008F090E081818053B2
:10164000990F292F220F220F920F890F0895CF9201
:10165000DF92EF92FF920F931F93CF93DF93CDB75B
:10166000DEB72B970FB6F894DEBF0FBECDBF7C015F
:101670006A014BE050E0CE0101960E940F14CE01AA
:101680000A960E94180BF7018083E9810E2F10E063
:10169000F801E154F109E331F105B8F5EC5CFF4FD5
:1016A0000C94F5138A81813639F08B818E3611F0D6
:1016B00087E003C086E001C081E0F701818325C097
:1016C00082E0F701818321C08B81823711F088E0AD
:1016D00001C084E0F701818318C08B81823711F04B
:1016E00085E001C083E0F70181830FC089E0F70145
:1016F00081830BC08AE0F701818307C08BE0F7018B
:10170000818303C08CE0F7018183CE0105960E949E
:10171000180BF701828348E050E0B601CE01019634
:101720000E940F14CE0101960E94180BF7018383CB
:10173000CE0104960E94180BF7018483CE01079610
:101740000E94180BF70185832B960FB6F894DEBF25
:101750000FBECDBFDF91CF911F910F91FF90EF9002
:10176000DF90CF900895813039F018F0823051F039
:10177000089510926E000895EFE6F0E080818D7F6D
:1017800080830895E0E7F0E080818D7F808381E0B1
:101790008093B000E1EBF0E08081887F84608083FB
:1017A0001092B3000895CF93C82F809110018C132D
:1017B00008C0E0EBF2E0E4918E2F9FEF90931001D0
:1017C00001C08FEF0E94B30B60E08C2F0E942211AA
:1017D000CF9108951F920F920FB60F9211242F935D
:1017E0003F934F935F936F937F938F939F93AF93A9
:1017F000BF93EF93FF9380910F0290911002A091FD
:101800001102B0911202892B8A2B8B2B51F18091FE
:101810000C02E0910D02F0910E02908189278083E5
:1018200080910F0290911002A0911102B0911202CA
:10183000181619061A061B06C4F480910F0290911F
:101840001002A0911102B09112020197A109B109F1
:1018500080930F0290931002A0931102B093120292
:1018600004C0809110010E94D30BFF91EF91BF91B2
:10187000AF919F918F917F916F915F914F913F9128
:101880002F910F900FBE0F901F901895109280020D
:1018900081E080937E0210927D0261E082E10E94ED
:1018A000221161E083E10E942211E9EBF0E08081E6
:1018B0008E7F808380818D7F808388E48093B800D1
:1018C00085E48093BC000895413208F046C09091B1
:1018D00080029111FCCF31E03093800220937E0290
:1018E0002FEF2093130210925802240F20935702D7
:1018F00030937F0220917F02880F822B80937F029A
:1019000080917D02813051F410927D0280917F029E
:101910008093BB0085EC8093BC0003C085EE809370
:10192000BC00809180028130E1F3809158028417DD
:1019300010F440915802442389F0A9E5B2E0FB017C
:101940008FEF840F90E00196680F791F8D9181933E
:10195000E617F707D9F7942F01C090E0892F089573
:101960000F93413208F051C0309180023111FCCF09
:1019700092E09093800200937E029FEF9093130277
:101980001092580240935702442371F0FB01A9E5DD
:10199000B2E0415050E04F5F5F4F640F751F91916F
:1019A0009D93E617F707D9F710927F0290917F0277
:1019B000880F892B80937F0280917D02813051F4C2
:1019C00010927D0280917F028093BB0085EC809312
:1019D000BC0003C085EE8093BC00222341F08091BF
:1019E0008002823021F4809180028230E1F3809184
:1019F00013028F3F79F080911302803241F0809181
:101A00001302803331F034E005C031E003C032E02E
:101A100001C033E0832F0F9108956132C8F4209103
:101A200080022430B9F4609335026623A9F0FC01EA
:101A3000A7E3B2E06150262F30E02F5F3F4F280F21
:101A4000391F91919D93E217F307D9F780E008952C
:101A500081E0089582E0089580E0089585ED809307
:101A6000BC00ECEBF0E0808184FDFDCF10928002A1
:101A7000089585EC8093BC001092800208951F9217
:101A80000F920FB60F9211242F933F934F935F93B2
:101A90006F937F938F939F93AF93BF93EF93FF9336
:101AA0008091B900E82FE87F8E2F90E0893C910566
:101AB00008F0F7C0FC01E95BFF4F0C94F51380912F
:101AC0007F028093BB0085EC8093BC00EAC09091BC
:101AD000580280915702981780F4E091580281E0F3
:101AE0008E0F80935802F0E0E75AFD4F808180937B
:101AF000BB0085EC8093BC00D4C080917E0288231B
:101B000019F00E942E0DCDC081E080937D0284EA01
:101B10008093BC0010928002C4C080E280931302C4
:101B20000E942E0DBEC080E3809313020E942E0DF2
:101B3000B8C088E3809313020E94390DB2C0E091CF
:101B4000580281E08E0F809358028091BB00F0E034
:101B5000E75AFD4F80839091580280915702981761
:101B600020F485EC8093BC009CC085E88093BC0089
:101B700098C0E091580281E08E0F809358028091C6
:101B8000BB00F0E0E75AFD4F808380917E028823FE
:101B900019F00E942E0D85C081E080937D0284EAB9
:101BA0008093BC00109280027CC00E942E0D79C0F0
:101BB00083E0809380021092140285EC8093BC0035
:101BC00070C080911402803280F4E091140281E0B0
:101BD0008E0F809314028091BB00F0E0EB5EFD4F0E
:101BE000808385EC8093BC005CC085E88093BC005A
:101BF00058C080911402803230F4E0911402F0E079
:101C0000EB5EFD4F10820E942E0D6091140270E079
:101C1000E0917902F0917A0285E192E009951092C3
:101C200014020E94390D3DC085E88093BC0039C084
:101C300084E0809380021092360210923502E09187
:101C40007B02F0917C02099580913502811105C0DB
:101C500081E08093350210923702E091360281E0F4
:101C60008E0F80933602F0E0E95CFD4F8081809317
:101C7000BB009091360280913502981720F485ECD4
:101C80008093BC000EC085E88093BC000AC085EC40
:101C90008093BC001092800204C0109213020E9434
:101CA0002E0DFF91EF91BF91AF919F918F917F91F9
:101CB0006F915F914F913F912F910F900FBE0F90B9
:101CC0001F901895823000F5E82FF0E0EE0FFF1F0F
:101CD000EF57FD4F71836083882319F0813049F0FD
:101CE0000895E9E6F0E080818C7F482B4083E89AF4
:101CF0000895E9E6F0E08081440F551F440F551F19
:101D0000837F482B4083E99A08951F920F920FB664
:101D10000F9211242F933F934F935F936F937F9371
:101D20008F939F93AF93BF93EF93FF938091810223
:101D300090918202892B29F0E0918102F091820238
:101D40000995FF91EF91BF91AF919F918F917F91F5
:101D50006F915F914F913F912F910F900FBE0F9018
:101D60001F9018951F920F920FB60F9211242F9368
:101D70003F934F935F936F937F938F939F93AF9313
:101D8000BF93EF93FF938091830290918402892BFC
:101D900029F0E0918302F09184020995FF91EF917F
:101DA000BF91AF919F918F917F916F915F914F9173
:101DB0003F912F910F900FBE0F901F90189580911B
:101DC000B50290E02091B602821B9109089590918E
:101DD000B6028091B502981750F4E92FF0E0E9546B
:101DE000FD4F208130E09F5F9093B60202C02FEF3D
:101DF0003FEFC9010895E091B6028091B502E8175E
:101E000030F4F0E0E954FD4F808190E008958FEFC9
:101E10009FEF08950895CF92DF92EF92FF920F9374
:101E20001F93CF93DF938C01CB016A012091910224
:101E30002223A1F041155105A1F0EB017B01E40E35
:101E4000F51E6991D801ED91FC910190F081E02D92
:101E5000C8010995CE15DF05A1F703C0642F0E94C4
:101E60000D0DC601DF91CF911F910F91FF90EF9063
:101E7000DF90CF900895CF93DF931F92CDB7DEB759
:101E8000FC016983909191029923D9F0909192027B
:101E9000903238F081E090E09383828380E090E09C
:101EA00017C080919302E82FF0E0EC56FD4F998126
:101EB00090838F5F809393028093920281E090E001
:101EC00007C061E0CE0101960E940D0D81E090E017
:101ED0000F90DF91CF910895FC011382128288EE5A
:101EE00093E0A0E0B0E084839583A683B78383E486
:101EF00091E09183808308951092B6021092B5020A
:101F000010929302109292020E94460C0895862F1E
:101F1000413208F040E267EB72E00E94640C1092DC
:101F2000B6028093B502089521E00E94870F0895BC
:101F300081E0809391026093B40210929302109218
:101F4000920208950E94980F08950F93062F21E0A2
:101F50004091920264E972E08091B4020E94B00C58
:101F60001092930210929202109291020F91089592
:101F700061E00E94A50F089585E892E00E946C0F31
:101F800008951F920F920FB60F9211242F933F9333
:101F90008F939F93AF93BF938091D8029091D90272
:101FA000A091DA02B091DB023091D70223E0230F37
:101FB0002D3720F40196A11DB11D05C026E8230F81
:101FC0000296A11DB11D2093D7028093D802909351
:101FD000D902A093DA02B093DB028091DC029091E7
:101FE000DD02A091DE02B091DF020196A11DB11DBC
:101FF0008093DC029093DD02A093DE02B093DF02B7
:10200000BF91AF919F918F913F912F910F900FBEF4
:102010000F901F9018953FB7F8948091DC02909133
:10202000DD02A091DE02B091DF0226B5A89B05C0BB
:102030002F3F19F00196A11DB11D3FBFBA2FA92F47
:10204000982F8827820F911DA11DB11DBC01CD01C4
:10205000660F771F881F991F660F771F881F991FAC
:102060000895CF92DF92EF92FF92CF93DF936B01AF
:102070007C010E940B10EB01C114D104E104F104B6
:10208000A9F00E9463080E940B106C1B7D0B683E38
:10209000734038F081E0C81AD108E108F108C8514E
:1020A000DC4FC114D104E104F10459F7DF91CF9161
:1020B000FF90EF90DF90CF900895789484B5826080
:1020C00084BD84B5816084BD85B5826085BD85B5DC
:1020D000816085BDEEE6F0E0808181608083E1E88B
:1020E000F0E01082808182608083808181608083C3
:1020F000E0E8F0E0808181608083E1EBF0E08081C6
:1021000084608083E0EBF0E0808181608083EAE797
:10211000F0E0808184608083808182608083808120
:10212000816080838081806880831092C1000895DF
:102130008E3008F08E5087709091110140E4949F8A
:1021400090011124282B20937C00EAE7F0E08081A5
:1021500080648083808186FDFDCF8091780020910E
:10216000790090E0922B0895833069F028F4813053
:10217000B1F08230C1F008958730C9F08830E9F0BD
:10218000843001F506C0E0E8F0E080818F7780833D
:102190000895E0E8F0E080818F7D8083089584B524
:1021A0008F7784BD089584B58F7D84BD0895E0EB5D
:1021B000F0E080818F7780830895E0EBF0E080810C
:1021C0008F7D80830895CF93DF9390E0FC01EB53E4
:1021D000FD4F2491FC01E752FD4F8491882379F152
:1021E00090E0880F991FFC01EF5FFC4FA591B4911F
:1021F000FC01E950FD4FC591D49161110CC09FB70E
:10220000F8948C91E22FE0958E238C932881E22321
:10221000E8839FBF14C0623061F49FB7F8943C918B
:10222000822F809583238C93E881E22BE8839FBFE4
:1022300006C08FB7F894EC91E22BEC938FBFDF913F
:10224000CF9108951F93CF93DF93282F30E0F901AA
:10225000EF54FD4F8491F901EB53FD4F1491F901B7
:10226000E752FD4FC491CC23D1F0D62F81110E94AB
:10227000B410EC2FF0E0EE0FFF1FE950FD4FA591D9
:10228000B4918FB7F894D11106C09C91E12FE095DD
:10229000E923EC9303C0EC91E12BEC938FBFDF912A
:1022A000CF911F910895CF93DF93282F30E0F9014C
:1022B000EF54FD4F8491F901EB53FD4FD491F90197
:1022C000E752FD4FC491CC2391F081110E94B410CC
:1022D000EC2FF0E0EE0FFF1FE351FD4FA591B491FD
:1022E000EC91ED2381E090E021F480E002C080E0F9
:1022F00090E0DF91CF9108955058BB27AA270E9404
:1023000094110C940E130E94001338F00E940713CE
:1023100020F039F49F3F19F426F40C94FD120EF4CA
:10232000E095E7FB0C94F712E92F0E941F1358F376
:10233000BA17620773078407950720F079F4A6F5AA
:102340000C9441130EF4E0950B2EBA2FA02D0B0127
:10235000B90190010C01CA01A0011124FF27591BEA
:1023600099F0593F50F4503E68F11A16F040A22FF0
:10237000232F342F4427585FF3CF46953795279561
:10238000A795F0405395C9F77EF41F16BA0B620B60
:10239000730B840BBAF09150A1F0FF0FBB1F661FA7
:1023A000771F881FC2F70EC0BA0F621F731F841FEA
:1023B00048F4879577956795B795F7959E3F08F010
:1023C000B0CF9395880F08F09927EE0F97958795D2
:1023D00008950E94D31208F481E008950E94021229
:1023E0000C940E130E94071358F00E94001340F043
:1023F00029F45F3F29F00C94F71251110C94421309
:102400000C94FD120E941F1368F39923B1F3552316
:1024100091F3951B550BBB27AA27621773078407F7
:1024200038F09F5F5F4F220F331F441FAA1FA9F38D
:1024300035D00E2E3AF0E0E832D091505040E6957B
:10244000001CCAF72BD0FE2F29D0660F771F881FDC
:10245000BB1F261737074807AB07B0E809F0BB0BCF
:10246000802DBF01FF2793585F4F3AF09E3F5105E3
:1024700078F00C94F7120C9442135F3FE4F3983E0B
:10248000D4F3869577956795B795F7959F5FC9F7CC
:10249000880F911D9695879597F90895E1E0660F4D
:1024A000771F881FBB1F621773078407BA0720F0C6
:1024B000621B730B840BBA0BEE1F88F7E09508952F
:1024C0000E9467126894B1110C94421308950E94FF
:1024D000271388F09F5798F0B92F9927B751B0F07C
:1024E000E1F0660F771F881F991F1AF0BA95C9F798
:1024F00014C0B13091F00E944113B1E008950C94E2
:102500004113672F782F8827B85F39F0B93FCCF394
:10251000869577956795B395D9F73EF49095809514
:10252000709561957F4F8F4F9F4F0895E89409C034
:1025300097FB3EF490958095709561957F4F8F4FF6
:102540009F4F9923A9F0F92F96E9BB279395F6950C
:10255000879577956795B795F111F8CFFAF4BB0F8A
:1025600011F460FF1BC06F5F7F4F8F4F9F4F16C0EE
:10257000882311F096E911C0772321F09EE8872F78
:10258000762F05C0662371F096E8862F70E060E034
:102590002AF09A95660F771F881FDAF7880F9695AD
:1025A000879597F90895990F0008550FAA0BE0E851
:1025B000FEEF16161706E807F907C0F01216130605
:1025C000E407F50798F0621B730B840B950B39F445
:1025D0000A2661F0232B242B252B21F408950A26AB
:1025E00009F4A140A6958FEF811D811D089597F9EB
:1025F0009F6780E870E060E008959FEF80EC0895A9
:1026000000240A94161617061806090608950024D1
:102610000A9412161306140605060895092E03944B
:10262000000C11F4882352F0BB0F40F4BF2B11F4BF
:1026300060FF04C06F5F7F4F8F4F9F4F089557FD1E
:102640009058440F551F59F05F3F71F04795880F20
:1026500097FB991F61F09F3F79F0879508951216B7
:1026600013061406551FF2CF4695F1DF08C0161663
:1026700017061806991FF1CF869571056105089414
:102680000895E894BB2766277727CB0197F908952B
:102690000E94D31208F48FEF08950E9460130C94E7
:1026A0000E130E94001338F00E94071320F09523A8
:1026B00011F00C94F7120C94FD1211240C94421397
:1026C0000E941F1370F3959FC1F3950F50E0551FA3
:1026D000629FF001729FBB27F00DB11D639FAA2777
:1026E000F00DB11DAA1F649F6627B00DA11D661FC6
:1026F000829F2227B00DA11D621F739FB00DA11DE7
:10270000621F839FA00D611D221F749F3327A00DA0
:10271000611D231F849F600D211D822F762F6A2F3C
:1027200011249F5750409AF0F1F088234AF0EE0FA1
:10273000FF1FBB1F661F771F881F91505040A9F7CE
:102740009E3F510580F00C94F7120C9442135F3FAA
:10275000E4F3983ED4F3869577956795B795F7950A
:10276000E7959F5FC1F7FE2B880F911D9695879582
:1027700097F908950E94D312880B990B089597FB3F
:10278000072E16F4009407D077FD09D00E94FB13A2
:1027900007FC05D03EF4909581959F4F0895709564
:1027A00061957F4F0895A1E21A2EAA1BBB1BFD0164
:1027B0000DC0AA1FBB1FEE1FFF1FA217B307E40720
:1027C000F50720F0A21BB30BE40BF50B661F771F78
:1027D000881F991F1A9469F7609570958095909558
:1027E0009B01AC01BD01CF010895EE0FFF1F0590C5
:1027F000F491E02D0994AA1BBB1B51E107C0AA1F4D
:10280000BB1FA617B70710F0A61BB70B881F991F91
:102810005A95A9F780959095BC01CD010895FB01CB
:10282000DC0102C005900D9241505040D8F7089548
:04283000F894FFCF4A
:102834000A000F000700060005000A000900020054
:10284400FF0120000D0A002F003A000000000016CE
:1028540007C1088E06A8069A06F406000000006464
:10286400086E616E00696E66006F7666002E000069
:102874000000003B0F0B0FDF0EE70EFB0E0A0F00EC
:00000001FF
