:100000000C946D010C94F2160C941F170C9495012E
:100010000C9495010C9495010C9495010C94441446
:100020000C9495010C9495010C9495010C949501F8
:100030000C9495010C9495010C9495010C949501E8
:100040000C942E180C9495010C9497110C94CF11CC
:100050000C9495010C9495010C9495010C949501C8
:100060000C9499150C949501BE13DF13DF13DC1368
:10007000DF13BA13DF13DF13DF13AC13DF13DF1348
:10008000C713D813D413DF13DF13DF13D013A7164E
:10009000AB16AB16AB16AB16AB16AB16AB16B9154B
:1000A000AB16AB16AB16AB16AB16AB16AB16B9153B
:1000B000AB16AB16AB16AB16AB16AB16AB16C11523
:1000C000AB16AB16AB16AB16AB16AB16AB16E715ED
:1000D000AB16AB16AB16AB16AB16AB16AB16C11503
:1000E000AB16AB16AB16AB16AB16AB16AB16ED15C7
:1000F000AB16AB16AB16AB16AB16AB16AB16F315B1
:10010000AB16AB16AB16AB16AB16AB16AB1605168D
:10011000AB16AB16AB16AB16AB16AB16AB162F1653
:10012000AB16AB16AB16AB16AB16AB16AB16F9157A
:10013000AB16AB16AB16AB16AB16AB16AB1613164F
:10014000AB16AB16AB16AB16AB16AB16AB16321620
:10015000AB16AB16AB16AB16AB16AB16AB16321610
:10016000AB16AB16AB16AB16AB16AB16AB16321600
:10017000AB16AB16AB16AB16AB16AB16AB163216F0
:10018000AB16AB16AB16AB16AB16AB16AB163B16D7
:10019000AB16AB16AB16AB16AB16AB16AB166E1694
:1001A000AB16AB16AB16AB16AB16AB16AB163B16B7
:1001B000AB16AB16AB16AB16AB16AB16AB166E1674
:1001C000AB16AB16AB16AB16AB16AB16AB1653167F
:1001D000AB16AB16AB16AB16AB16AB16AB16721650
:1001E000AB16AB16AB16AB16AB16AB16AB16721640
:1001F000AB16AB16AB16AB16AB16AB16AB1687161B
:10020000AB16AB16AB16AB16AB16AB16AB16A116F0
:10021000AB16AB16AB16AB16AB16AB16AB16A116E0
:1002200054696D652073686F756C64206265207316
:1002300065742E0D0A0054696D6520646964206E32
:100240006F742073657420636F72726563746C7968
:100250002C20636865636B20776972696E672E0D69
:100260000A004E6F76203132203230313500303185
:100270003A35343A3139000200000008000201002A
:100280000003040700000000000000000102040851
:1002900010204080010204081020010204081020F0
:1002A000040404040404040402020202020203031C
:1002B00003030303000000002300260029000000C0
:1002C0000000250028002B0000000000240027006B
:1002D0002A00BD0FFF116F12291811241FBECFEF86
:1002E000D4E0DEBFCDBF11E0A0E0B1E0ECE5F9E382
:1002F00002C005900D92A635B107D9F723E0A6E517
:10030000B1E001C01D92AD30B207E1F711E0CDE6DA
:10031000D1E004C02197FE010E94731CC936D107A9
:10032000C9F70E947B120C94AC1C0C94000082EB69
:1003300092E00E94E9170895FC019281892F869529
:10034000869586958E71282F220F220F820F9F701F
:10035000890F0895FC019381892F8695869586954E
:100360008E71282F220F220F820F9F70890F089500
:10037000FC019481892F8695869586958E71282F0C
:10038000220F220F820F9F70890F08952DEC629F1C
:10039000212D1124269526952695422F440F342F82
:1003A000330F330F340F631B30E1239F600D112493
:1003B000FC01628308952DEC629F212D1124269566
:1003C00026952695422F440F342F330F330F340FC9
:1003D000631B30E1239F600D1124FC0163830895AA
:1003E0002DEC629F212D1124269526952695422FCE
:1003F000440F342F330F330F340F631B30E1239F2F
:10040000600D1124FC01648308952DEC629F212D61
:100410001124269526952695422F440F342F330F0D
:10042000330F340F631B30E1239F600D1124FC0157
:10043000668308952DEC629F212D11242695269523
:100440002695422F440F342F330F330F340F631B85
:1004500030E1239F600D1124FC0167830895FC01A6
:10046000603D87E0780710F0605D77409DEC699F04
:10047000912D1124969596959695392F330F232F0C
:10048000220F220F230F621B80E1989F600D112421
:10049000608708950F931F93CF93DF938C0168E6D5
:1004A00070E082EB92E00E940F18E091B202F091AE
:1004B000B3020190F081E02D60E082EB92E00995BB
:1004C00082EB92E00E94251847E050E068E670E079
:1004D00082EB92E00E940118E8012296075F1F4F0D
:1004E00082EB92E00E944C17892B29F082EB92E07C
:1004F0000E94541788832196C017D10789F7DF918E
:10050000CF911F910F910895CF93C62F68E670E0A9
:1005100082EB92E00E940F186C2F82EB92E00E9417
:10052000A81782EB92E00E94251841E050E068E6AF
:1005300070E082EB92E00E94011882EB92E00E9450
:100540005417CF9108956FE00E9484028095881F10
:100550008827881F0895CF93DF93D62FC42F68E68E
:1005600070E082EB92E00E940F186D2F82EB92E018
:100570000E94A8176C2F82EB92E00E94A81782EBD2
:1005800092E00E942518DF91CF910895CF93DF93D9
:10059000EC016EE00E94840240E06EE0CE010E9419
:1005A000AB02DF91CF910895EF92FF920F931F93CB
:1005B000CF93DF937C0168E670E082EB92E00E94CB
:1005C0000F18E091B202F091B3020190F081E02D9A
:1005D00060E082EB92E00995E70122968701075FD0
:1005E0001F4F699182EB92E00E94A817C017D107B4
:1005F000C1F782EB92E00E9425186FE0C7010E94CC
:10060000840240E06FE0C7010E94AB02DF91CF910E
:100610001F910F91FF90EF9008958091810190912B
:100620008201A0918301B09184010196A11DB11DA9
:100630008093810190938201A0938301B093840100
:100640000895BC0183B7816083BFEAE7F0E02081B1
:1006500080818F77808393B7917F9C6093BF8895CB
:1006600083B78E7F83BF2083072E000C880B990BE6
:100670000E949E1808950F931F93CF93DF9302E675
:1006800011E0C0E0D0E0CE010E94961C90E0F8019D
:10069000819391938F0161E070E080E090E00E948F
:1006A0009E182196C630D10571F780916A0190910C
:1006B0006B0190935F0180935E01DF91CF911F9159
:1006C0000F910895CF92DF92EF92FF926B017C0120
:1006D00084E690E00E949E1C9927F7FC9A958F2D46
:1006E0007E2D6D2D85E690E00E949E1CB701992716
:1006F00077FD9095892F86E690E00E949E1C6F2DD5
:1007000077278827992787E690E00E949E1CFF9014
:10071000EF90DF90CF9008950F931F93CF93DF93C7
:1007200010928C0110928D0110928E0110928F0107
:10073000892B09F04FC0C4E6D0E000E211E0F801D7
:1007400080810E940519BC01990F880B990B0E94AA
:10075000441B20918C0130918D0140918E0150916C
:100760008F010E942E1A60938C0170938D018093EB
:100770008E0190938F01219711F79B01AC016DE3DE
:100780007AE08BE391E40E949A1A20E030E040E89E
:1007900054E40E94D01B20E030E048EC52E40E9478
:1007A000D01B2DEC3CEC4CEE50E40E942D1A362F61
:1007B000272F462F572F682F792F40939001509362
:1007C00091016093920170939301532F422F382F20
:1007D000292F1DC0809120010E940519BC018CE0C9
:1007E00090E00E943D1C9B0180E090E9289FB001B1
:1007F000299F700D389F700D1124072E000C880B57
:10080000990B0E94441B562F472F382F292F652FF5
:10081000742F832F922FDF91CF911F910F91089505
:100820009B01892B99F4EAE0F0E0CB01BF010E9423
:100830003D1C90936F0180936E01A901481B590BD9
:10084000CA01BF010E943D1CCB01089580916E0139
:1008500090916F010895EF92FF920F931F93CF93A2
:10086000DF937C018B01BC0180E090E00E941004CA
:10087000C6E5D1E099838883B70181E090E00E94CA
:1008800010049B838A83B80180E090E00E941004EA
:100890009D838C83B80181E090E00E9410049F83C7
:1008A0008E83488159812091620130916301421702
:1008B0005307B9F00CC020916A0130916B0180910F
:1008C0008A0190918B012817390749F507C01092CA
:1008D00086011092850180E090E021C081E090E0E7
:1008E0001EC04091580150915901209164013091EE
:1008F00065014217530759F740915A0150915B0126
:1009000020916601309167014217530701F720914A
:100910006801309169018217930769F2D8CFDF919E
:10092000CF911F910F91FF90EF9008954F925F929A
:100930006F927F928F929F92AF92BF92CF92DF92EF
:10094000EF92FF920F931F93CF93DF93CDB7DEB754
:100950002A970FB6F894DEBF0FBECDBF462E3A01E0
:100960003A872987C12CD12C882E912C5E0189E0F1
:10097000A80EB11CB401C6010E94100498878F8391
:10098000FE0137967F018601F70151907F01C80172
:100990000E94961C581621F0652DC8010E949E1CCD
:1009A0000F5F1F4FEA14FB0479F761E070E080E00D
:1009B00090E00E949E18FFEFCF1ADF0A82E0C8166F
:1009C000D104C1F66894CC24C1F8D12C842C912C8C
:1009D0005E0197E0A90EB11CB401C60102970E9406
:1009E00010049E838D83FE0135967F018601F701F9
:1009F00051907F01C8010E94961C581621F0652D68
:100A0000C8010E949E1C0F5F1F4FEA14FB0479F778
:100A100061E070E080E090E00E949E18FFEFCF1A46
:100A2000DF0A84E0C816D104B9F691E169167104B1
:100A3000D9F41C821B8210E084E090E00E94961C96
:100A4000181729F0612F84E090E00E949E1C1C8101
:100A500085E090E00E94961C181741F1612F85E017
:100A600090E00E949E1C22C061E069831A82162FCA
:100A700084E090E00E94961C181729F0612F84E012
:100A800090E00E949E1C1A8185E090E00E94961CD6
:100A9000181761F0612F85E090E00E949E1C06C04F
:100AA000612F86E090E00E949E1C13C0198585E0AE
:100AB00090E00E94961C181729F0612F85E090E0C5
:100AC0000E949E1C1A8586E090E00E94961C1813D6
:100AD000E7CF2A960FB6F894DEBF0FBECDBFDF91E9
:100AE000CF911F910F91FF90EF90DF90CF90BF902B
:100AF000AF909F908F907F906F905F904F900895F0
:100B00008D30910524F09C012C50310905C0892BB2
:100B100009F008952CE030E0822F932F0895CF93B1
:100B2000DF93892B99F4C4E2D1E060E088810E94D0
:100B30008F192FEF40E060912201809126010E94E1
:100B4000E91961E088810E948F1916C0C4E2D1E0E2
:100B500060E088810E948F192FEF40E060912201B0
:100B6000809126010E94E91961E088810E948F1915
:100B70008AE090E00E942103DF91CF9108954F9287
:100B80005F926F927F928F929F92AF92BF92CF921D
:100B9000DF92EF92FF920F931F93CF93DF9388E73B
:100BA00091E00E944A0288E791E00E94AA01482E43
:100BB000512C88E791E00E94B80190E00E948005E6
:100BC0003C01BC0180E090E00E941004909373010E
:100BD00080937201C0E0D0E00F2EFEE68F2EF1E090
:100BE0009F2EF02D04E211E00F2EF2E2AF2EF1E085
:100BF000BF2EF02D0F2EF6E2CF2EF1E0DF2EF02DDE
:100C0000F401E480F580B30181E090E00E941004DB
:100C1000E816F90621F481E090E00E948F0560E07B
:100C2000F80180810E948F19B301CE010E94100447
:100C30008C5F9E4FFC01208140E0F5016081F60150
:100C400080810E94E91961E0F80180810E948F197A
:100C500082E090E00E9421032196C230D10581F606
:100C6000C4E2D1E060E088810E948F1920910E01DA
:100C700040E060912201809126010E94E91961E023
:100C800088810E948F1982E090E00E942103B201C6
:100C900080E090E00E9410049093750180937401AD
:100CA000C0E0D0E00F2EFEE68F2EF1E09F2EF02D5B
:100CB00004E211E00F2EF2E2AF2EF1E0BF2EF02D94
:100CC0000F2EF6E2CF2EF1E0DF2EF02DF401E680BC
:100CD000F780B20181E090E00E941004E816F90666
:100CE00021F481E090E00E948F0560E0F8018081AE
:100CF0000E948F19B201CE010E9410048C5F9E4F9A
:100D0000FC01208140E0F5016081F60180810E94B4
:100D1000E91961E0F80180810E948F1982E090E07A
:100D20000E9421032196C230D10581F681E090E036
:100D30000E948F0580919501882309F4B2C081E05B
:100D400090E00E948C030E940C1B80E090E00E94C7
:100D500010049093770180937601C0E0D0E00F2ECD
:100D6000FEE68F2EF1E09F2EF02D04E211E00F2E13
:100D7000F2E2AF2EF1E0BF2EF02D0F2EF6E2CF2ED5
:100D8000F1E0DF2EF02DF401E084F18481E090E0C9
:100D90000E948C030E940C1B81E090E00E941004D2
:100DA000E816F90621F481E090E00E948F0560E0EA
:100DB000F80180810E948F1981E090E00E948C03ED
:100DC0000E940C1BCE010E9410048C5F9E4FFC0100
:100DD000208140E0F5016081F60180810E94E919DF
:100DE00061E0F80180810E948F1982E090E00E940A
:100DF00021032196C230D10531F6C4E2D1E060E092
:100E000088810E948F192091130140E06091220196
:100E1000809126010E94E91961E088810E948F1962
:100E200082E090E00E94210381E090E00E948F0523
:100E30008091940181111AC060E088810E948F190D
:100E40002091140140E060912201809126010E94CE
:100E5000E91961E088810E948F1982E090E00E9488
:100E6000210381E090E00E948F051BC0C4E2D1E025
:100E700060E088810E948F192091140140E0609108
:100E80002201809126010E94E91961E088810E9477
:100E90008F1982E090E00E94210381E090E00E949F
:100EA0008F05DF91CF911F910F91FF90EF90DF9011
:100EB000CF90BF90AF909F908F907F906F905F90FA
:100EC0004F9008952F923F924F925F926F927F9230
:100ED0008F929F92AF92BF92CF92DF92EF92FF924A
:100EE0000F931F93CF93DF9380E00E94DF1680E083
:100EF00090E00E948F05C0E0D0E004E211E00F2EE8
:100F0000F2E2CF2EF1E0DF2EF02D0F2EF6E2EF2EE3
:100F1000F1E0FF2EF02D0F2EFAE28F2EF1E09F2E42
:100F2000F02D612C712C0F2EF8E2AF2EF1E0BF2EC8
:100F3000F02D60E0F80180810E948F19FE01EC5FC6
:100F4000FE4F208140E0F6016081F70180810E9420
:100F5000E91961E0F80180810E948F19F401808114
:100F60000E94C019019729F560911801709119012B
:100F7000072E000C880B990B0E949E182196C330F7
:100F8000D10514F0C62DD72D60E0F80180810E94B4
:100F90008F19FE01EC5FFE4F208140E0F601608179
:100FA000F70180810E94E91961E0F80180810E94C7
:100FB0008F19F50180810E94C019019709F0B9CFFE
:100FC0006091180170911901072E000C880B990B84
:100FD0000E949E1880E090E00E948F0560911C01A5
:100FE00070911D01072E000C880B990B0E949E1812
:100FF000C12CD12C04E211E00F2EF2E2AF2EF1E071
:10100000BF2EF02D0F2EF6E2EF2EF1E0FF2EF02D89
:101010000F2EFAE28F2EF1E09F2EF02D412C512C55
:101020000F2EF8E26F2EF1E07F2EF02D60E0F80138
:1010300080810E948F19F601EC5FFE4F208140E015
:10104000F5016081F70180810E94E91961E0F801F2
:1010500080810E948F19F40180810E94C01901973C
:1010600041F56091180170911901072E000C880B51
:10107000990B0E949E18FFEFCF1ADF0A8AE0C8166C
:10108000D10414F0C42CD52C60E0F80180810E94BA
:101090008F19F601EC5FFE4F208140E0F501608181
:1010A000F70180810E94E91961E0F80180810E94C6
:1010B0008F19F30180810E94C019019709F0B6CF02
:1010C0006091180170911901072E000C880B990B83
:1010D0000E949E1880E090E00E948F0560911C01A4
:1010E00070911D01072E000C880B990B0E949E1811
:1010F000E12CF12C04E211E00F2EF2E28F2EF1E050
:101100009F2EF02D0F2EF6E2AF2EF1E0BF2EF02D28
:101110000F2EFAE26F2EF1E07F2EF02D212C312CD4
:101120000F2EF8E24F2EF1E05F2EF02D60E0F80177
:1011300080810E948F19F701EC5FFE4F208140E013
:10114000F4016081F50180810E94E91961E0F801F4
:1011500080810E948F19F30180810E94C01901973C
:1011600041F56091180170911901072E000C880B50
:10117000990B0E949E18FFEFEF1AFF0A86E0E8160F
:10118000F10414F0E22CF32C60E0F80180810E945D
:101190008F19F701EC5FFE4F208140E0F401608180
:1011A000F50180810E94E91961E0F80180810E94C7
:1011B0008F19F20180810E94C019019709F0B6CF02
:1011C0006091180170911901072E000C880B990B82
:1011D0000E949E1880E090E00E948F0560911C01A3
:1011E00070911D01072E000C880B990B0E949E1810
:1011F00000E010E00F2EF4E2AF2EF1E0BF2EF02D54
:101200000F2EF2E28F2EF1E09F2EF02D0F2EF6E240
:101210006F2EF1E07F2EF02D0F2EFAE24F2EF1E02F
:101220005F2EF02D0F2EF8E22F2EF1E03F2EF02D45
:1012300060E0F50180810E948F19F801EC5FFE4F9C
:10124000208140E0F4016081F30180810E94E9196E
:1012500061E0F50180810E948F19F20180810E9476
:10126000C019019731F56091180170911901072E8D
:10127000000C880B990B0E949E180F5F1F4F0A30BD
:10128000110514F000E010E060E0F50180810E949B
:101290008F19F801EC5FFE4F208140E0F40160817E
:1012A000F30180810E94E91961E0F50180810E94CB
:1012B0008F19F10180810E94C019019709F0B8CF00
:1012C0006091180170911901072E000C880B990B81
:1012D0000E949E1880E090E00E948F0560911C01A2
:1012E00070911D01072E000C880B990B0E949E180F
:1012F000CC0F8C2F880F880FC80FCC0DEE0C6E2DE5
:10130000660F660FE60E6E2D600FC83108F078C0CC
:101310006C3308F075C088E791E00E94DB016C2F08
:1013200088E791E00E94F00188E791E00E94D402F2
:10133000C4E2D1E060E088810E948F190F2EF4E0B2
:10134000CF2EF1E0DF2EF02D0F2EF2E2EF2EF1E0A6
:10135000FF2EF02D06E211E0F601228540E0F701B4
:101360006081F80180810E94E91961E088810E9412
:101370008F1960911A0170911B01072E000C880BC8
:10138000990B0E949E1880E090E00E948F0560916A
:101390001A0170911B01072E000C880B990B0E94FB
:1013A0009E1860E088810E948F19F601228540E036
:1013B000F7016081F80180810E94E91961E088816C
:1013C0000E948F1960911A0170911B01072E000C69
:1013D000880B990B0E949E1880E090E00E948F0578
:1013E00088E791E00E949C0190E0909389018093AE
:1013F000880143E050E06DE073E080E00E94BC169D
:10140000DF91CF911F910F91FF90EF90DF90CF90E0
:10141000BF90AF909F908F907F906F905F904F9014
:101420003F902F9008956F927F928F929F92AF92EC
:10143000BF92CF92DF92EF92FF920F931F93CF93C1
:10144000DF9380E00E94DF1688E791E00E944A0265
:1014500088E791E00E94AA01C82F88E791E00E94E6
:10146000AA012091850130918601232B09F053C0F8
:10147000D0E004E211E00F2EF4E08F2EF1E09F2E79
:10148000F02D0F2EF2E2AF2EF1E0BF2EF02D0F2E39
:10149000F6E2CF2EF1E0DF2EF02DE82EF12C0F2E0C
:1014A000F8E26F2EF1E07F2EF02D60E0F8018081F0
:1014B0000E948F19F401218940E0F5016081F60155
:1014C00080810E94E91961E0F80180810E948F19F2
:1014D00065E070E080E090E00E949E1880E090E07F
:1014E0000E948F05EC16FD0681F488E791E00E94CA
:1014F0004A0288E791E00E94AA01C82FD0E0F301D8
:1015000080810E94C019892B81F281E090E0909344
:1015100086018093850188E791E00E949C0190E01C
:10152000909389018093880143E050E06DE073E07F
:1015300080E00E94BC16DF91CF911F910F91FF9028
:10154000EF90DF90CF90BF90AF909F908F907F9063
:101550006F9008952F923F924F925F926F927F9279
:101560008F929F92AF92BF92CF92DF92EF92FF92B3
:101570000F931F93CF93DF9380E00E94DF1680E0EC
:1015800090E00E948F05C4E2D1E060E088810E9473
:101590008F190F2EF4E0CF2EF1E0DF2EF02D0F2E5D
:1015A000F2E2EF2EF1E0FF2EF02D06E211E0F6015F
:1015B000218940E0F7016081F80180810E94E919EA
:1015C00061E088810E948F1960911A0170911B015E
:1015D000072E000C880B990B0E949E1880E090E06B
:1015E0000E948F0560E088810E948F19F601218991
:1015F00040E0F7016081F80180810E94E91961E013
:1016000088810E948F1960911A0170911B01072E29
:10161000000C880B990B0E949E1880E090E00E94BD
:101620008F0560E088810E948F19F601218940E0D2
:10163000F7016081F80180810E94E91961E08881E9
:101640000E948F1960911A0170911B01072E000CE6
:10165000880B990B0E949E1880E090E00E948F05F5
:10166000C0E0D0E004E211E067010F2EF6E2EF2EB9
:10167000F1E0FF2EF02D0F2EFAE28F2EF1E09F2EDB
:10168000F02D612C712C0F2EF8E2AF2EF1E0BF2E61
:10169000F02D60E0F80180810E948F19FE01EC5F5F
:1016A000FE4F208140E0F6016081F70180810E94B9
:1016B000E91961E0F80180810E948F19F4018081AD
:1016C0000E94C019019729F56091180170911901C4
:1016D000072E000C880B990B0E949E182196C23091
:1016E000D10514F0C62DD72D60E0F80180810E944D
:1016F0008F19FE01EC5FFE4F208140E0F601608112
:10170000F70180810E94E91961E0F80180810E945F
:101710008F19F50180810E94C019019709F0B9CF96
:101720006091180170911901072E000C880B990B1C
:101730000E949E1880E090E00E948F0560911C013D
:1017400070911D01072E000C880B990B0E949E18AA
:10175000A12CB12C04E211E00F2EF2E2CF2EF1E029
:10176000DF2EF02D0F2EF6E2EF2EF1E0FF2EF02D02
:101770000F2EFAE28F2EF1E09F2EF02D412C512CEE
:101780000F2EF8E26F2EF1E07F2EF02D60E0F801D1
:1017900080810E948F19F501EC5FFE4F208140E0AF
:1017A000F6016081F70180810E94E91961E0F8018A
:1017B00080810E948F19F40180810E94C0190197D5
:1017C000C9F56091180170911901072E000C880B62
:1017D000990B0E949E18209741F4F9E0AF16B104CE
:1017E0007CF48FEFA81AB80A10C0C130D10569F493
:1017F000E2E0AE16B1043CF4FFEFAF1ABF0A05C039
:10180000A42CB52C02C0A42CB52C60E0F80180817A
:101810000E948F19F501EC5FFE4F208140E0F60138
:101820006081F70180810E94E91961E0F8018081FF
:101830000E948F19F30180810E94C019019709F05D
:10184000A5CF6091180170911901072E000C880B2B
:10185000990B0E949E1880E090E00E948F05609195
:101860001C0170911D01072E000C880B990B0E9422
:101870009E1800E010E00F2EF4E2EF2EF1E0FF2EB4
:10188000F02D0F2EF2E28F2EF1E09F2EF02D0F2E75
:10189000F6E2CF2EF1E0DF2EF02D0F2EFAE26F2EC2
:1018A000F1E07F2EF02D212C312C0F2EF8E24F2E5F
:1018B000F1E05F2EF02D60E0F70180810E948F192A
:1018C000F801EC5FFE4F208140E0F4016081F601F9
:1018D00080810E94E91961E0F70180810E948F19DF
:1018E000F30180810E94C019019731F560911801C0
:1018F00070911901072E000C880B990B0E949E18FD
:101900000F5F1F4F0630110514F0022D132D60E0FC
:10191000F70180810E948F19F801EC5FFE4F208152
:1019200040E0F4016081F60180810E94E91961E0E4
:10193000F70180810E948F19F20180810E94C019F5
:10194000019709F0B8CF6091180170911901072E25
:10195000000C880B990B0E949E1880E090E00E947A
:101960008F0560911C0170911D01072E000C880BE2
:10197000990B0E949E18E12CF12C0F2EF4E2CF2E31
:10198000F1E0DF2EF02D0F2EF2E28F2EF1E09F2EF0
:10199000F02D0F2EF6E26F2EF1E07F2EF02D0F2EA0
:1019A000FAE24F2EF1E05F2EF02D0F2EF8E22F2EEF
:1019B000F1E03F2EF02D60E0F60180810E948F194A
:1019C000F701EC5FFE4F208140E0F4016081F301FC
:1019D00080810E94E91961E0F60180810E948F19DF
:1019E000F20180810E94C019019741F560911801B0
:1019F00070911901072E000C880B990B0E949E18FC
:101A0000FFEFEF1AFF0A8AE0E816F10414F0E12C68
:101A1000F12C60E0F60180810E948F19F701EC5FE4
:101A2000FE4F208140E0F4016081F30180810E943B
:101A3000E91961E0F60180810E948F19F10180812E
:101A40000E94C019019709F0B6CF609118017091FA
:101A50001901072E000C880B990B0E949E1880E03C
:101A600090E00E948F0560911C0170911D01072E6E
:101A7000000C880B990B0E949E180F2EF1E18F2EFF
:101A8000912CF02D0F2EF4E2CF2EF1E0DF2EF02D71
:101A90000F2EF2E26F2EF1E07F2EF02D0F2EF6E2E8
:101AA0004F2EF1E05F2EF02D0F2EFAE22F2EF1E0F7
:101AB0003F2EF02D60E0F60180810E948F19F40125
:101AC000EC5FFE4F208140E0F3016081F2018081F4
:101AD0000E94E91961E0F60180810E948F19F101ED
:101AE00080810E94C019019759F560911801709189
:101AF0001901072E000C880B990B0E949E18FFEF0E
:101B00008F1A9F0A83E1881691042CF00F2EF1E1C1
:101B10008F2EF02D912C60E0F60180810E948F19AC
:101B2000F401EC5FFE4F208140E0F3016081F2019F
:101B300080810E94E91961E0F60180810E948F197D
:101B4000E8E2F1E080810E94C019019709F0B2CF6C
:101B50006091180170911901072E000C880B990BE8
:101B60000E949E1880E090E00E948F0560911C0109
:101B700070911D01072E000C880B990B0E949E1876
:101B8000CE01880F991FCC0FDD1FCC0FDD1FCC0FAE
:101B9000DD1FC80FD91FCE018A0D9B1DB801660F2E
:101BA000771F000F111F000F111F000F111F060FCD
:101BB000171FB8016E0D7F1D8D3091050CF071C09F
:101BC0006C3371050CF06DC021E030E0A4010E947F
:101BD0009604C4E2D1E060E088810E948F190F2E44
:101BE000F4E0CF2EF1E0DF2EF02D0F2EF2E2EF2EFB
:101BF000F1E0FF2EF02D06E211E0F601228540E033
:101C0000F7016081F80180810E94E91961E0888113
:101C10000E948F1960911A0170911B01072E000C10
:101C2000880B990B0E949E1880E090E00E948F051F
:101C300060911A0170911B01072E000C880B990B03
:101C40000E949E1860E088810E948F19F60122850B
:101C500040E0F7016081F80180810E94E91961E0AC
:101C600088810E948F1960911A0170911B01072EC3
:101C7000000C880B990B0E949E1880E090E00E9457
:101C80008F0588E791E00E949C0190E09093890184
:101C90008093880143E050E06DE073E080E00E94B3
:101CA000BC160E943B03DF91CF911F910F91FF90D3
:101CB000EF90DF90CF90BF90AF909F908F907F90EC
:101CC0006F905F904F903F902F9008956F927F920A
:101CD0008F929F92AF92BF92CF92DF92EF92FF923C
:101CE0000F931F93CF93DF9300E010E0C4E2D1E0A5
:101CF0000F2EF2E2CF2EF1E0DF2EF02D0F2EF6E2C6
:101D0000EF2EF1E0FF2EF02D0F2EFAE28F2EF1E0F4
:101D10009F2EF02D612C712C0F2EF8E2AF2EF1E0EA
:101D2000BF2EF02D60E088810E948F19F801E050ED
:101D3000FF4F208140E0F6016081F70180810E9421
:101D4000E91961E088810E948F19F40180810E9465
:101D5000C019019721F56091180170911901072EA2
:101D6000000C880B990B0E949E180F5F1F4F0430C8
:101D7000110514F0062D172D60E088810E948F193F
:101D8000F801EC5FFE4F208140E0F6016081F70131
:101D900080810E94E91961E088810E948F19F50114
:101DA00080810E94C019019709F0BCCF6091180191
:101DB00070911901072E000C880B990B0E949E1838
:101DC00060911C0170911D01072E000C880B990B6E
:101DD0000E949E180130110571F01CF4012B41F096
:101DE0002EC00230110551F003301105F1F027C06B
:101DF0000E94620724C00E94AA0A21C08091950116
:101E000081110AC081E08093950184E190E0909374
:101E10001F0180931E0113C0109295018FE090E086
:101E200090931F0180931E010AC080918701811148
:101E300004C081E08093870102C01092870180E096
:101E400090E00E948F0560911C0170911D01072E8A
:101E5000000C880B990B0E949E18DF91CF911F9167
:101E60000F91FF90EF90DF90CF90BF90AF909F9039
:101E70008F907F906F900895CF9388E791E00E94B4
:101E80004A0288E791E00E949C0190E020911E01A7
:101E900030911F018217930724F410928901109248
:101EA000880188E791E00E94B801C82F88E791E097
:101EB0000E94AA01682F70E08C2F90E00E942B04F2
:101EC000019711F40E94130A80912A010E94C019FF
:101ED000019711F40E94660E80918701882349F0D2
:101EE000809128010E94C019019701F50E94BF0549
:101EF0001DC088E791E00E949C0190E0209188013C
:101F000030918901821B930B20911E0130911F019A
:101F1000821793075CF00E94BF0588E791E00E945A
:101F20009C0190E0909389018093880180918101C8
:101F300090918201A0918301B09184018B3391052E
:101F4000A105B105C4F0BC01CD016F5F7F4F8F4F7C
:101F50009F4F6093810170938201809383019093DE
:101F600084010E94620310928101109282011092FA
:101F7000830110928401CF91089588E791E00E9437
:101F800097010895EF92FF920F931F93CF93DF93E2
:101F90007B01142F682F82EB92E00E940518112319
:101FA00081F0E7011150012F10E00F5F1F4F0E0D60
:101FB0001F1D699182EB92E00E94A817C017D107FC
:101FC000C1F782EB92E00E942518DF91CF911F911B
:101FD0000F91FF90EF900895CF93DF9300D0CDB78E
:101FE000DEB79EE099838A8342E0BE016F5F7F4F38
:101FF00088E60E94C20F0F900F90DF91CF91089555
:1020000080950E94EC0F0895CF93DF9300D000D00D
:1020100000D0CDB7DEB782EB92E00E94E91788B11D
:10202000807288B988B1807188B988E791E00E9490
:10203000C60260E080912C010E94501961E08091FD
:1020400026010E94501961E0809122010E945019DE
:1020500061E0809124010E94501960E080912A0182
:102060000E94501960E0809128010E94501960E0A0
:10207000809120010E9450198AE090E00E94961CF5
:10208000811133C088E791E00E94A30281112DC025
:102090004EE652E062E672E0CE0101960E948113A4
:1020A0006E8188E791E00E94C6016D8188E791E02A
:1020B0000E94DB016C8188E791E00E94F0016B8156
:1020C00088E791E00E9405026A8188E791E00E941A
:1020D0001A02698170E06053784F88E791E00E94AE
:1020E0002F0288E791E00E94D40261E08AE090E04C
:1020F0000E949E1C6AE070E080E090E00E949E18C2
:1021000088E791E00E94A302811107C066E372E0B4
:1021100086E991E00E94B71206C060E272E086E9AB
:1021200091E00E94B7128CE00E94001080E00E94B3
:10213000EC0F6AE070E080E090E00E949E1883B7A8
:10214000817F846083BF83B7816083BF789443E0DD
:1021500050E06DE073E080E00E94BC160E943B03FB
:1021600026960FB6F894DEBF0FBECDBFDF91CF919C
:1021700008950E94041081E090E00E948F05089568
:10218000FC01918D228D892F90E0805C9F4F821BF6
:1021900091098F7399270895FC01918D828D98176D
:1021A00031F0828DE80FF11D858D90E008958FEF5D
:1021B0009FEF0895FC01918D828D981761F0828DBB
:1021C000DF01A80FB11D5D968C91928D9F5F9F736B
:1021D000928F90E008958FEF9FEF089585EF91E142
:1021E000892B49F080E090E0892B29F00E94F511BD
:1021F00081110E9400000895FC01848DDF01A80F69
:10220000B11DA35ABF4F8C91248D30E02F5F3F4FFB
:102210002F733078332334F421503109206C3F6F11
:102220002F5F3F4F248FA689B7898C93A089B189EE
:102230008C9180648C93938D848D981306C0028852
:10224000F389E02D80818F7D80830895CF93DF9384
:10225000EC01888D81110FC018C00FB607FC0DC0AE
:10226000908195FF0AC0A889B9898C9185FF05C026
:10227000CE010E94FC10EA89FB89908195FDEDCF8B
:10228000A889B9898C9186FFE8CFDF91CF91089515
:102290000F931F93CF93DF93FC01938D848D98133D
:1022A00024C0A089B1898C9185FD31C01EC00FB6B4
:1022B00007FC08C0E889F989808185FF03C0CE0149
:1022C0000E94FC109C8D091791F38B8DFE01E80F85
:1022D000F11DE35AFF4F10830B8FEA89FB89808140
:1022E0008062808381E0888F1BC0238D30E02F5F68
:1022F0003F4F2F733078332334F421503109206C51
:102300003F6F2F5F3F4F162FEF01022FDBCFA689C4
:10231000B7896C930088F189E02D80818064808387
:1023200081E090E0DF91CF911F910F9108951F926E
:102330000F920FB60F9211242F938F939F93AF9309
:10234000BF93EF93FF93E091A601F091A7018081E5
:1023500082FD14C0E6E9F1E0A689B7892C91818D50
:102360008F5F8F73928D891771F0DF01E18DF0E03F
:10237000EA56FE4F258F59968C9305C0E091AC012B
:10238000F091AD018081FF91EF91BF91AF919F914D
:102390008F912F910F900FBE0F901F9018951F9245
:1023A0000F920FB60F9211242F933F934F935F9389
:1023B0006F937F938F939F93AF93BF93EF93FF930D
:1023C00086E991E00E94FC10FF91EF91BF91AF91DF
:1023D0009F918F917F916F915F914F913F912F913D
:1023E0000F900FBE0F901F90189586E991E00E9404
:1023F000C01021E0892B09F420E0822F0895E6E93E
:10240000F1E01382128288EE93E0A0E0B0E08483D2
:102410009583A683B78384E391E09183808385ECE1
:1024200090E09587848784EC90E09787868780EC9E
:1024300090E0918B808B81EC90E0938B828B82EC8F
:1024400090E0958B848B86EC90E0978B868B118E39
:10245000128E138E148E089508958F929F92AF92CC
:10246000BF92CF92DF92EF92FF920F931F93CF9381
:10247000DF935C017B014C0182E0880E911C6501B9
:10248000E5E0CE0ED11C00E010E0F40161914F01B7
:102490004AE050E0C7010E946A13EC016EE2C701F6
:1024A0000E94E0128C0F9D1F080F191F8C149D04B1
:1024B00061F74AE050E0F5016581C7010E946A13A7
:1024C000800F911FDF91CF911F910F91FF90EF909F
:1024D000DF90CF90BF90AF909F908F900895E3E3EF
:1024E000F2E084E491E0918380831282138214826B
:1024F0001582089508950E94CA180E947A120E94B7
:10250000B910CEEED0E10E943C0F2097E1F30E947B
:10251000EE10F9CFCF92DF92EF92FF920F931F93BD
:10252000CF93DF9341155105B1F08C01E62EF72EC4
:10253000EA01C12CD12CD7016D917D01D801ED911B
:10254000FC910190F081E02DC8010995C80ED91EBB
:10255000219789F702C0C12CD12CC601DF91CF9100
:102560001F910F91FF90EF90DF90CF900895EF9221
:10257000FF920F931F93CF93DF93EB012196FB0103
:102580006491662399F08C01E12CF12CD801ED9136
:10259000FC910190F081E02DC8010995E80EF91E2B
:1025A000FE01649121966111F1CF02C0E12CF12C62
:1025B000C701DF91CF911F910F91FF90EF90089588
:1025C000DC01ED91FC910190F081E02D09950895D9
:1025D0004F925F926F927F929F92AF92BF92CF92F3
:1025E000DF92EF92FF920F931F93CF93DF93CDB7BC
:1025F000DEB7A1970FB6F894DEBF0FBECDBF5C016A
:102600006A017B01922E19A281E0821720F00F2E21
:10261000FAE09F2EF02D8E010F5D1F4F492C512C9B
:10262000612C712CC701B601A30192010E94511CBB
:102630008C2D929E80191124015011098A3010F4BA
:10264000805D01C0895CD8018C93C22ED32EE42E0C
:10265000F52EC114D104E104F10421F7011511058F
:1026600091F0F80101900020E9F73197AF01401B8C
:10267000510BD501ED91FC910280F381E02DB80161
:10268000C501099502C080E090E0A1960FB6F894CC
:10269000DEBF0FBECDBFDF91CF911F910F91FF9095
:1026A000EF90DF90CF90BF90AF909F907F906F9012
:1026B0005F904F9008952115310549F4DC01ED91AB
:1026C000FC910190F081E02D642F099508950E94FE
:1026D000E81208959A01462F50E060E070E00E94F1
:1026E0005B130895FC01908190539A3008F090E0BC
:1026F00081818053990F292F220F220F920F890F6A
:102700000895CF92DF92EF92FF920F931F93CF9392
:10271000DF93CDB7DEB72B970FB6F894DEBF0FBEB1
:10272000CDBF7C016A014BE050E0CE0101960E94D2
:102730008D1CCE010A960E947213F7018083E981F5
:102740000E2F10E0F801E154F109E331F105B8F57D
:10275000EC5CFF4F0C94731C8A81813639F08B81BD
:102760008E3611F087E003C086E001C081E0F701FA
:10277000818325C082E0F701818321C08B8182376C
:1027800011F088E001C084E0F701818318C08B81DB
:10279000823711F085E001C083E0F70181830FC02B
:1027A00089E0F70181830BC08AE0F701818307C0CC
:1027B0008BE0F701818303C08CE0F7018183CE01B8
:1027C00005960E947213F701828348E050E0B6013B
:1027D000CE0101960E948D1CCE0101960E947213BB
:1027E000F7018383CE0104960E947213F70184835C
:1027F000CE0107960E947213F70185832B960FB6C0
:10280000F894DEBF0FBECDBFDF91CF911F910F9126
:10281000FF90EF90DF90CF900895813039F018F05D
:10282000823051F0089510926E000895EFE6F0E0C6
:1028300080818D7F80830895E0E7F0E080818D7F47
:10284000808381E08093B000E1EBF0E08081887FBD
:10285000846080831092B3000895CF93C82F809135
:102860002E018C1308C0E7E7F2E0E4918E2F9FEF72
:1028700090932E0101C08FEF0E940D1460E08C2F09
:102880000E948F19CF9108951F920F920FB60F9249
:1028900011242F933F934F935F936F937F938F9365
:1028A0009F93AF93BF93EF93FF9380913C029091DE
:1028B0003D02A0913E02B0913F02892B8A2B8B2BC7
:1028C00051F180913902E0913A02F0913B029081FE
:1028D0008927808380913C0290913D02A0913E0225
:1028E000B0913F02181619061A061B06C4F480910F
:1028F0003C0290913D02A0913E02B0913F020197AF
:10290000A109B10980933C0290933D02A0933E023D
:10291000B0933F0204C080912E010E942D14FF91BC
:10292000EF91BF91AF919F918F917F916F915F9147
:102930004F913F912F910F900FBE0F901F901895C0
:102940001092AD0281E08093AB021092AA0261E086
:1029500082E10E948F1961E083E10E948F19E9EB07
:10296000F0E080818E7F808380818D7F808388E40A
:102970008093B80085E48093BC000895413208F04C
:1029800046C09091AD029111FCCF31E03093AD0281
:102990002093AB022FEF2093400210928502240F68
:1029A000209384023093AC022091AC02880F822BDA
:1029B0008093AC028091AA02813051F41092AA0255
:1029C0008091AC028093BB0085EC8093BC0003C077
:1029D00085EE8093BC008091AD028130E1F380915F
:1029E0008502841710F440918502442389F0A6E8FB
:1029F000B2E0FB018FEF840F90E00196680F791F22
:102A00008D918193E617F707D9F7942F01C090E0D5
:102A1000892F08950F93413208F051C03091AD02D3
:102A20003111FCCF92E09093AD020093AB029FEF87
:102A3000909340021092850240938402442371F0E7
:102A4000FB01A6E8B2E0415050E04F5F5F4F640FDA
:102A5000751F91919D93E617F707D9F71092AC0275
:102A60009091AC02880F892B8093AC028091AA02CE
:102A7000813051F41092AA028091AC028093BB0085
:102A800085EC8093BC0003C085EE8093BC002223BC
:102A900041F08091AD02823021F48091AD0282300C
:102AA000E1F3809140028F3F79F0809140028032C3
:102AB00041F080914002803331F034E005C031E0D4
:102AC00003C032E001C033E0832F0F9108956132DB
:102AD000C8F42091AD022430B9F4609362026623F9
:102AE000A9F0FC01A4E6B2E06150262F30E02F5F90
:102AF0003F4F280F391F91919D93E217F307D9F7A4
:102B000080E0089581E0089582E0089580E00895CE
:102B100085ED8093BC00ECEBF0E0808184FDFDCF7F
:102B20001092AD02089585EC8093BC001092AD0226
:102B300008951F920F920FB60F9211242F933F9377
:102B40004F935F936F937F938F939F93AF93BF93B5
:102B5000EF93FF938091B900E82FE87F8E2F90E0EC
:102B6000893C910508F0F7C0FC01E95BFF4F0C942C
:102B7000731C8091AC028093BB0085EC8093BC00F9
:102B8000EAC09091850280918402981780F4E091C8
:102B9000850281E08E0F80938502F0E0EA57FD4FB9
:102BA00080818093BB0085EC8093BC00D4C0809171
:102BB000AB02882319F00E948815CDC081E0809374
:102BC000AA0284EA8093BC001092AD02C4C080E2E5
:102BD000809340020E948815BEC080E3809340022B
:102BE0000E948815B8C088E3809340020E94931524
:102BF000B2C0E091850281E08E0F809385028091C2
:102C0000BB00F0E0EA57FD4F8083909185028091F0
:102C10008402981720F485EC8093BC009CC085E862
:102C20008093BC0098C0E091850281E08E0F809374
:102C300085028091BB00F0E0EA57FD4F80838091D0
:102C4000AB02882319F00E94881585C081E080932B
:102C5000AA0284EA8093BC001092AD027CC00E945C
:102C6000881579C083E08093AD021092410285EC13
:102C70008093BC0070C080914102803280F4E0916A
:102C8000410281E08E0F809341028091BB00F0E011
:102C9000EE5BFD4F808385EC8093BC005CC085E8D3
:102CA0008093BC0058C080914102803230F4E091A2
:102CB0004102F0E0EE5BFD4F10820E9488156091AA
:102CC000410270E0E091A602F091A70282E492E056
:102CD0000995109241020E9493153DC085E88093AA
:102CE000BC0039C084E08093AD0210926302109260
:102CF0006202E091A802F091A90209958091620216
:102D0000811105C081E08093620210926402E0911B
:102D1000630281E08E0F80936302F0E0EC59FD4F77
:102D200080818093BB00909163028091620298172A
:102D300020F485EC8093BC000EC085E88093BC0035
:102D40000AC085EC8093BC001092AD0204C01092C2
:102D500040020E948815FF91EF91BF91AF919F9122
:102D60008F917F916F915F914F913F912F910F9034
:102D70000FBE0F901F901895823000F5E82FF0E0FD
:102D8000EE0FFF1FE255FD4F71836083882319F01A
:102D9000813049F00895E9E6F0E080818C7F482B8E
:102DA0004083E89A0895E9E6F0E08081440F551FDA
:102DB000440F551F837F482B4083E99A0895823042
:102DC00080F4882319F0813019F003C0E89801C01D
:102DD000E998E82FF0E0EE0FFF1FE255FD4F11825A
:102DE000108208951F920F920FB60F9211242F9305
:102DF0003F934F935F936F937F938F939F93AF9383
:102E0000BF93EF93FF938091AE029091AF02892B15
:102E100029F0E091AE02F091AF020995FF91EF9198
:102E2000BF91AF919F918F917F916F915F914F91E2
:102E30003F912F910F900FBE0F901F9018951F92EA
:102E40000F920FB60F9211242F933F934F935F93DE
:102E50006F937F938F939F93AF93BF93EF93FF9362
:102E60008091B0029091B102892B29F0E091B002DB
:102E7000F091B1020995FF91EF91BF91AF919F91B0
:102E80008F917F916F915F914F913F912F910F9013
:102E90000FBE0F901F9018958091E20290E0209154
:102EA000E302821B910908959091E3028091E2026E
:102EB000981750F4E92FF0E0EC51FD4F208130E0FD
:102EC0009F5F9093E30202C02FEF3FEFC901089587
:102ED000E091E3028091E202E81730F4F0E0EC5177
:102EE000FD4F808190E008958FEF9FEF0895089542
:102EF000CF92DF92EF92FF920F931F93CF93DF93C6
:102F00008C01CB016A012091BE022223A1F0411560
:102F10005105A1F0EB017B01E40EF51E6991D8018A
:102F2000ED91FC910190F081E02DC8010995CE153D
:102F3000DF05A1F703C0642F0E946715C601DF916A
:102F4000CF911F910F91FF90EF90DF90CF90089558
:102F5000CF93DF931F92CDB7DEB7FC0169839091C9
:102F6000BE029923D9F09091BF02903238F081E0EF
:102F700090E09383828380E090E017C08091C0024C
:102F8000E82FF0E0EF53FD4F998190838F5F80939E
:102F9000C0028093BF0281E090E007C061E0CE01F3
:102FA00001960E94671581E090E00F90DF91CF912C
:102FB0000895FC011382128288EE93E0A0E0B0E055
:102FC00084839583A683B7838AE491E09183808389
:102FD00008951092E3021092E2021092C002109241
:102FE000BF020E94A0140895862F413208F040E2EB
:102FF00064EE72E00E94BE141092E3028093E2023B
:10300000089521E00E94F417089581E08093BE02A4
:103010006093E1021092C0021092BF0208950E94D4
:10302000051808950F93062F21E04091BF0261EC2F
:1030300072E08091E1020E940A151092C002109283
:10304000BF021092BE020F91089561E00E94121813
:10305000089582EB92E00E94D91708951F920F9273
:103060000FB60F9211242F933F938F939F93AF939B
:10307000BF938091050390910603A0910703B0913F
:1030800008033091040323E0230F2D3720F4019629
:10309000A11DB11D05C026E8230F0296A11DB11D7B
:1030A000209304038093050390930603A0930703E2
:1030B000B09308038091090390910A03A0910B0338
:1030C000B0910C030196A11DB11D8093090390934B
:1030D0000A03A0930B03B0930C03BF91AF919F9190
:1030E0008F913F912F910F900FBE0F901F901895C9
:1030F0003FB7F8948091090390910A03A0910B03C4
:10310000B0910C0326B5A89B05C02F3F19F001967E
:10311000A11DB11D3FBFBA2FA92F982F8827820F5D
:10312000911DA11DB11DBC01CD01660F771F881F28
:10313000991F660F771F881F991F0895CF92DF92FE
:10314000EF92FF92CF93DF936B017C010E9478187E
:10315000EB01C114D104E104F104A9F00E942C1286
:103160000E9478186C1B7D0B683E734038F081E03C
:10317000C81AD108E108F108C851DC4FC114D104C4
:10318000E104F10459F7DF91CF91FF90EF90DF90C8
:10319000CF900895789484B5826084BD84B58160B1
:1031A00084BD85B5826085BD85B5816085BDEEE64F
:1031B000F0E0808181608083E1E8F0E0108280812E
:1031C00082608083808181608083E0E8F0E080819C
:1031D00081608083E1EBF0E0808184608083E0EBBC
:1031E000F0E0808181608083EAE7F0E080818460A4
:1031F0008083808182608083808181608083808100
:10320000806880831092C10008958E3008F08E503F
:10321000877090912F0140E4949F90011124282BF6
:1032200020937C00EAE7F0E08081806480838081E5
:1032300086FDFDCF809178002091790090E0922B5F
:103240000895833069F028F48130B1F08230C1F004
:1032500008958730C9F08830E9F0843001F506C060
:10326000E0E8F0E080818F7780830895E0E8F0E087
:1032700080818F7D8083089584B58F7784BD089584
:1032800084B58F7D84BD0895E0EBF0E080818F7779
:1032900080830895E0EBF0E080818F7D8083089546
:1032A000CF93DF9390E0FC01E457FD4F2491FC01A4
:1032B000E056FD4F8491882379F190E0880F991FA3
:1032C000FC01E853FD4FA591B491FC01E254FD4F80
:1032D000C591D49161110CC09FB7F8948C91E22FE5
:1032E000E0958E238C932881E223E8839FBF14C04E
:1032F000623061F49FB7F8943C91822F80958323CC
:103300008C93E881E22BE8839FBF06C08FB7F894C7
:10331000EC91E22BEC938FBFDF91CF9108951F9337
:10332000CF93DF93282F30E0F901E858FD4F8491C7
:10333000F901E457FD4F1491F901E056FD4FC49196
:10334000CC23D1F0D62F81110E942119EC2FF0E06F
:10335000EE0FFF1FE254FD4FA591B4918FB7F89483
:10336000D11106C09C91E12FE095E923EC9303C0B5
:10337000EC91E12BEC938FBFDF91CF911F910895DA
:10338000CF93DF93282F30E0F901E858FD4F849167
:10339000F901E457FD4FD491F901E056FD4FC49176
:1033A000CC2391F081110E942119EC2FF0E0EE0F57
:1033B000FF1FEC54FD4FA591B491EC91ED2381E0FA
:1033C00090E021F480E002C080E090E0DF91CF91B6
:1033D0000895BF92CF92DF92EF92FF920F931F93C7
:1033E000CF93DF93B82E162F042FC7E0D0E0E22E44
:1033F000F12C0F2EF7E0CF2ED12CF02D01110EC0A5
:10340000C6018C1B9D0BB70102C0759567958A9507
:10341000E2F761708B2D0E948F190BC0B7010C2E43
:1034200002C0759567950A94E2F761708B2D0E9432
:103430008F1961E0812F0E948F1960E0812F0E9417
:103440008F192197D8F6DF91CF911F910F91FF909F
:10345000EF90DF90CF90BF9008955058BB27AA27D8
:103460000E94451A0C94961B0E94881B38F00E94FB
:103470008F1B20F039F49F3F19F426F40C94851B20
:103480000EF4E095E7FB0C947F1BE92F0E94A71B2D
:1034900058F3BA17620773078407950720F079F489
:1034A000A6F50C94C91B0EF4E0950B2EBA2FA02D97
:1034B0000B01B90190010C01CA01A0011124FF27E1
:1034C000591B99F0593F50F4503E68F11A16F040DC
:1034D000A22F232F342F4427585FF3CF46953795DB
:1034E0002795A795F0405395C9F77EF41F16BA0BA0
:1034F000620B730B840BBAF09150A1F0FF0FBB1F4E
:10350000661F771F881FC2F70EC0BA0F621F731F96
:10351000841F48F4879577956795B795F7959E3FF3
:1035200008F0B0CF9395880F08F09927EE0F979584
:10353000879508950E94AE1A0C94961B0E948F1BCB
:1035400058F00E94881B40F029F45F3F29F00C944A
:103550007F1B51110C94CA1B0C94851B0E94A71B46
:1035600068F39923B1F3552391F3951B550BBB27B2
:10357000AA2762177307840738F09F5F5F4F220FF7
:10358000331F441FAA1FA9F335D00E2E3AF0E0E8EE
:1035900032D091505040E695001CCAF72BD0FE2F38
:1035A00029D0660F771F881FBB1F261737074807CC
:1035B000AB07B0E809F0BB0B802DBF01FF27935884
:1035C0005F4F3AF09E3F510578F00C947F1B0C94AE
:1035D000CA1B5F3FE4F3983ED4F3869577956795D1
:1035E000B795F7959F5FC9F7880F911D96958795B9
:1035F00097F90895E1E0660F771F881FBB1F6217D8
:1036000073078407BA0720F0621B730B840BBA0B95
:10361000EE1F88F7E09508950E94131B6894B1117E
:103620000C94CA1B08950E94AF1B88F09F5798F016
:10363000B92F9927B751B0F0E1F0660F771F881FB7
:10364000991F1AF0BA95C9F714C0B13091F00E94D1
:10365000C91BB1E008950C94C91B672F782F8827E8
:10366000B85F39F0B93FCCF3869577956795B395F8
:10367000D9F73EF490958095709561957F4F8F4F67
:103680009F4F0895E89409C097FB3EF4909580956C
:10369000709561957F4F8F4F9F4F9923A9F0F92F18
:1036A00096E9BB279395F695879577956795B79596
:1036B000F111F8CFFAF4BB0F11F460FF1BC06F5F7C
:1036C0007F4F8F4F9F4F16C0882311F096E911C08E
:1036D000772321F09EE8872F762F05C0662371F0AF
:1036E00096E8862F70E060E02AF09A95660F771FC3
:1036F000881FDAF7880F9695879597F9089597F9B7
:103700009F6780E870E060E008959FEF80EC089587
:1037100000240A94161617061806090608950024B0
:103720000A9412161306140605060895092E03942A
:10373000000C11F4882352F0BB0F40F4BF2B11F49E
:1037400060FF04C06F5F7F4F8F4F9F4F089557FDFD
:103750009058440F551F59F05F3F71F04795880FFF
:1037600097FB991F61F09F3F79F087950895121696
:1037700013061406551FF2CF4695F1DF08C0161642
:1037800017061806991FF1CF8695710561050894F3
:103790000895E894BB2766277727CB0197F908950A
:1037A0000E94E31B0C94961B0E94881B38F00E9419
:1037B0008F1B20F0952311F00C947F1B0C94851B1C
:1037C00011240C94CA1B0E94A71B70F3959FC1F390
:1037D000950F50E0551F629FF001729FBB27F00DBF
:1037E000B11D639FAA27F00DB11DAA1F649F662714
:1037F000B00DA11D661F829F2227B00DA11D621F63
:10380000739FB00DA11D621F839FA00D611D221F1C
:10381000749F3327A00D611D231F849F600D211D00
:10382000822F762F6A2F11249F5750409AF0F1F083
:1038300088234AF0EE0FFF1FBB1F661F771F881FEC
:1038400091505040A9F79E3F510580F00C947F1B8A
:103850000C94CA1B5F3FE4F3983ED4F386957795AA
:103860006795B795F795E7959F5FC1F7FE2B880F92
:10387000911D9695879597F9089597FB072E16F455
:10388000009407D077FD09D00E94791C07FC05D071
:103890003EF4909581959F4F0895709561957F4F67
:1038A0000895A1E21A2EAA1BBB1BFD010DC0AA1F81
:1038B000BB1FEE1FFF1FA217B307E407F50720F099
:1038C000A21BB30BE40BF50B661F771F881F991F14
:1038D0001A9469F760957095809590959B01AC015D
:1038E000BD01CF010895EE0FFF1F0590F491E02D6B
:1038F0000994AA1BBB1B51E107C0AA1FBB1FA61737
:10390000B70710F0A61BB70B881F991F5A95A9F788
:1039100080959095BC01CD010895FB01DC0102C0AA
:1039200005900D9241505040D8F70895F999FECF77
:1039300092BD81BDF89A992780B50895262FF999EF
:10394000FECF1FBA92BD81BD20BD0FB6F894FA9A82
:0C395000F99A0FBE01960895F894FFCF7D
:10395C0024081C72014F12064C24200F000C7E11FF
:10396C000C4D401C720818003200140005000F00AA
:10397C000F000700060005000A0009000200FF0105
:10398C000000000048118A12C010DA10CC10261169
:10399C00000000002D1200000000A81778174C172B
:0639AC005417681777179D
:00000001FF
