:100000000C946D010C9490160C94BD160C949501F3
:100010000C9495010C9495010C9495010C94E213A9
:100020000C9495010C9495010C9495010C949501F8
:100030000C9495010C9495010C9495010C949501E8
:100040000C94CC170C9495010C9435110C946D11F3
:100050000C9495010C9495010C9495010C949501C8
:100060000C9437150C9495015C137D137D137A1352
:100070007D1358137D137D137D134A137D137D1358
:100080006513761372137D137D137D136E1345165E
:10009000491649164916491649164916491657155B
:1000A000491649164916491649164916491657154B
:1000B00049164916491649164916491649165F1533
:1000C00049164916491649164916491649168515FD
:1000D00049164916491649164916491649165F1513
:1000E00049164916491649164916491649168B15D7
:1000F00049164916491649164916491649169115C1
:100100004916491649164916491649164916A3159E
:100110004916491649164916491649164916CD1564
:10012000491649164916491649164916491697158A
:100130004916491649164916491649164916B11560
:100140004916491649164916491649164916D01531
:100150004916491649164916491649164916D01521
:100160004916491649164916491649164916D01511
:100170004916491649164916491649164916D01501
:100180004916491649164916491649164916D915E8
:1001900049164916491649164916491649160C16A4
:1001A0004916491649164916491649164916D915C8
:1001B00049164916491649164916491649160C1684
:1001C0004916491649164916491649164916F11590
:1001D0004916491649164916491649164916101660
:1001E0004916491649164916491649164916101650
:1001F000491649164916491649164916491625162B
:1002000049164916491649164916491649163F1600
:1002100049164916491649164916491649163F16F0
:1002200054696D652073686F756C64206265207316
:1002300065742E0D0A0054696D6520646964206E32
:100240006F742073657420636F72726563746C7968
:100250002C20636865636B20776972696E672E0D69
:100260000A004E6F76203132203230313500303185
:100270003A31373A33390002000000080002010029
:100280000003040700000000000000000102040851
:1002900010204080010204081020010204081020F0
:1002A000040404040404040402020202020203031C
:1002B00003030303000000002300260029000000C0
:1002C0000000250028002B0000000000240027006B
:1002D0002A005B0F9D110D12C71711241FBECFEF0F
:1002E000D4E0DEBFCDBF11E0A0E0B1E0E8E9F8E383
:1002F00002C005900D92A635B107D9F723E0A6E517
:10030000B1E001C01D92A930B207E1F711E0CDE6DE
:10031000D1E004C02197FE010E94111CC936D1070B
:10032000C9F70E9419120C944A1C0C9400008EEA22
:1003300092E00E9487170895FC019281892F86958B
:10034000869586958E71282F220F220F820F9F701F
:10035000890F0895FC019381892F8695869586954E
:100360008E71282F220F220F820F9F70890F089500
:10037000FC019481892F8695869586958E71282F0C
:10038000220F220F820F9F70890F08952DEC629F1C
:10039000212D1124269526952695422F440F342F82
:1003A000330F330F340F631B30E1239F600D112493
:1003B000FC01628308952DEC629F212D1124269566
:1003C00026952695422F440F342F330F330F340FC9
:1003D000631B30E1239F600D1124FC0163830895AA
:1003E0002DEC629F212D1124269526952695422FCE
:1003F000440F342F330F330F340F631B30E1239F2F
:10040000600D1124FC01648308952DEC629F212D61
:100410001124269526952695422F440F342F330F0D
:10042000330F340F631B30E1239F600D1124FC0157
:10043000668308952DEC629F212D11242695269523
:100440002695422F440F342F330F330F340F631B85
:1004500030E1239F600D1124FC0167830895FC01A6
:10046000603D87E0780710F0605D77409DEC699F04
:10047000912D1124969596959695392F330F232F0C
:10048000220F220F230F621B80E1989F600D112421
:10049000608708950F931F93CF93DF938C0168E6D5
:1004A00070E08EEA92E00E94AD17E091AE02F0910A
:1004B000AF020190F081E02D60E08EEA92E00995B4
:1004C0008EEA92E00E94C31747E050E068E670E0D1
:1004D0008EEA92E00E949F17E8012296075F1F4F65
:1004E0008EEA92E00E94EA16892B29F08EEA92E0C9
:1004F0000E94F21688832196C017D10789F7DF91F1
:10050000CF911F910F910895CF93C62F68E670E0A9
:100510008EEA92E00E94AD176C2F8EEA92E00E9464
:1005200046178EEA92E00E94C31741E050E068E669
:1005300070E08EEA92E00E949F178EEA92E00E949D
:10054000F216CF9108956FE00E9484028095881F73
:100550008827881F0895CF93DF93D62FC42F68E68E
:1005600070E08EEA92E00E94AD176D2F8EEA92E065
:100570000E9446176C2F8EEA92E00E9446178EEA80
:1005800092E00E94C317DF91CF910895CF93DF933C
:10059000EC016EE00E94840240E06EE0CE010E9419
:1005A000AB02DF91CF910895EF92FF920F931F93CB
:1005B000CF93DF937C0168E670E08EEA92E00E94C0
:1005C000AD17E091AE02F091AF020190F081E02D05
:1005D00060E08EEA92E00995E70122968701075FC5
:1005E0001F4F69918EEA92E00E944617C017D1070B
:1005F000C1F78EEA92E00E94C3176FE0C7010E9424
:10060000840240E06FE0C7010E94AB02DF91CF910E
:100610001F910F91FF90EF9008950895BC0183B74B
:10062000816083BFEAE7F0E0208180818F7780835B
:1006300093B7917F9C6093BF889583B78E7F83BF6C
:100640002083072E000C880B990B0E943C180895FC
:100650000F931F93CF93DF9302E611E0C0E0D0E049
:10066000CE010E94341C90E0F801819391938F0198
:1006700061E070E080E090E00E943C182196C63076
:10068000D10571F780916A0190916B0190935F01A0
:1006900080935E01DF91CF911F910F9108950F9389
:1006A0001F93CF93DF9310928801109289011092CB
:1006B0008A0110928B01892B09F04FC0C4E6D0E06B
:1006C00000E211E0F80180810E94A318BC01990F9B
:1006D000880B990B0E94E21A2091880130918901C0
:1006E00040918A0150918B010E94CC19609388013E
:1006F0007093890180938A0190938B01219711F760
:100700009B01AC016DE37AE08BE391E40E94381A1F
:1007100020E030E040E854E40E946E1B20E030E02E
:1007200048EC52E40E946E1B2DEC3CEC4CEE50E485
:100730000E94CB19362F272F462F572F682F792F3E
:1007400040938C0150938D0160938E0170938F01C3
:10075000532F422F382F292F1DC0809120010E9436
:10076000A318BC018CE090E00E94DB1B9B0180E0A1
:1007700090E9289FB001299F700D389F700D1124BA
:10078000072E000C880B990B0E94E21A562F472F58
:10079000382F292F652F742F832F922FDF91CF9120
:1007A0001F910F9108959B01892B99F4EAE0F0E0E5
:1007B000CB01BF010E94DB1B90936F0180936E0100
:1007C000A901481B590BCA01BF010E94DB1BCB01C9
:1007D000089580916E0190916F010895EF92FF92BC
:1007E0000F931F93CF93DF937C018B01BC0180E0BB
:1007F00090E00E94D303C6E5D1E099838883B701D6
:1008000081E090E00E94D3039B838A83B80180E05B
:1008100090E00E94D3039D838C83B80181E090E037
:100820000E94D3039F838E83488159812091620166
:100830003091630142175307B9F00CC020916A014F
:1008400030916B01809186019091870128173907BB
:1008500049F507C0109282011092810180E090E07A
:1008600021C081E090E01EC0409158015091590193
:1008700020916401309165014217530759F7409167
:100880005A0150915B012091660130916701421736
:10089000530701F72091680130916901821793078E
:1008A00069F2D8CFDF91CF911F910F91FF90EF9018
:1008B00008954F925F926F927F928F929F92AF9224
:1008C000BF92CF92DF92EF92FF920F931F93CF933D
:1008D000DF93CDB7DEB72A970FB6F894DEBF0FBE11
:1008E000CDBF462E3A013A872987C12CD12C882EBC
:1008F000912C5E0189E0A80EB11CB401C6010E94D2
:10090000D30398878F83FE0137967F018601F70115
:1009100051907F01C8010E94341C581621F0652DAA
:10092000C8010E943C1C0F5F1F4FEA14FB0479F7BB
:1009300061E070E080E090E00E943C18FFEFCF1A89
:10094000DF0A82E0C816D104C1F66894CC24C1F84D
:10095000D12C842C912C5E0197E0A90EB11CB4011E
:10096000C60102970E94D3039E838D83FE013596B4
:100970007F018601F70151907F01C8010E94341C5C
:10098000581621F0652DC8010E943C1C0F5F1F4FB7
:10099000EA14FB0479F761E070E080E090E00E94E7
:1009A0003C18FFEFCF1ADF0A84E0C816D104B9F66D
:1009B00091E169167104D9F41C821B8210E084E075
:1009C00090E00E94341C181729F0612F84E090E019
:1009D0000E943C1C1C8185E090E00E94341C18178A
:1009E00041F1612F85E090E00E943C1C22C061E053
:1009F00069831A82162F84E090E00E94341C181735
:100A000029F0612F84E090E00E943C1C1A8185E06F
:100A100090E00E94341C181761F0612F85E090E08F
:100A20000E943C1C06C0612F86E090E00E943C1CA6
:100A300013C0198585E090E00E94341C181729F036
:100A4000612F85E090E00E943C1C1A8586E090E0D2
:100A50000E94341C1813E7CF2A960FB6F894DEBF15
:100A60000FBECDBFDF91CF911F910F91FF90EF90FF
:100A7000DF90CF90BF90AF909F908F907F906F90BE
:100A80005F904F9008958D30910524F09C012C507B
:100A9000310905C0892B09F008952CE030E0822F40
:100AA000932F0895CF93DF93892B99F4C4E2D1E07B
:100AB00060E088810E942D192FEF40E060912201B3
:100AC000809126010E94871961E088810E942D197A
:100AD00016C0C4E2D1E060E088810E942D192FEF9A
:100AE00040E060912201809126010E94871961E017
:100AF00088810E942D198AE090E00E940E03DF9108
:100B0000CF9108954F925F926F927F928F929F92B2
:100B1000AF92BF92CF92DF92EF92FF920F931F930B
:100B2000CF93DF9388E791E00E944A0288E791E043
:100B30000E94AA01482E512C88E791E00E94B8013A
:100B400090E00E9443053C01BC0180E090E00E94DF
:100B5000D3039093730180937201C0E0D0E00F2E15
:100B6000FEE68F2EF1E09F2EF02D04E211E00F2E15
:100B7000F2E2AF2EF1E0BF2EF02D0F2EF6E2CF2ED7
:100B8000F1E0DF2EF02DF401E480F580B30181E087
:100B900090E00E94D303E816F90621F481E090E08A
:100BA0000E94520560E0F80180810E942D19B30176
:100BB000CE010E94D3038C5F9E4FFC01208140E058
:100BC000F5016081F60180810E94871961E0F801DA
:100BD00080810E942D1982E090E00E940E032196F0
:100BE000C230D10581F6C4E2D1E060E088810E9484
:100BF0002D1920910E0140E0609122018091260183
:100C00000E94871961E088810E942D1982E090E09E
:100C10000E940E03B20180E090E00E94D303909303
:100C2000750180937401C0E0D0E00F2EFEE68F2E98
:100C3000F1E09F2EF02D04E211E00F2EF2E2AF2E34
:100C4000F1E0BF2EF02D0F2EF6E2CF2EF1E0DF2ED9
:100C5000F02DF401E680F780B20181E090E00E947F
:100C6000D303E816F90621F481E090E00E945205D2
:100C700060E0F80180810E942D19B201CE010E942E
:100C8000D3038C5F9E4FFC01208140E0F501608121
:100C9000F60180810E94871961E0F80180810E943D
:100CA0002D1982E090E00E940E032196C230D105FA
:100CB00081F681E090E00E945205809191018823A5
:100CC00009F4B2C081E090E00E944F030E94AA1A8A
:100CD00080E090E00E94D3039093770180937601A7
:100CE000C0E0D0E00F2EFEE68F2EF1E09F2EF02D1B
:100CF00004E211E00F2EF2E2AF2EF1E0BF2EF02D54
:100D00000F2EF6E2CF2EF1E0DF2EF02DF401E0847D
:100D1000F18481E090E00E944F030E94AA1A81E0D2
:100D200090E00E94D303E816F90621F481E090E0F8
:100D30000E94520560E0F80180810E942D1981E037
:100D400090E00E944F030E94AA1ACE010E94D30392
:100D50008C5F9E4FFC01208140E0F5016081F6012F
:100D600080810E94871961E0F80180810E942D191D
:100D700082E090E00E940E032196C230D10531F648
:100D8000C4E2D1E060E088810E942D192091130116
:100D900040E060912201809126010E94871961E064
:100DA00088810E942D1982E090E00E940E0381E06C
:100DB00090E00E9452058091900181111AC060E07C
:100DC00088810E942D192091140140E06091220138
:100DD000809126010E94871961E088810E942D1967
:100DE00082E090E00E940E0381E090E00E945205B4
:100DF0001BC0C4E2D1E060E088810E942D192091DF
:100E0000140140E060912201809126010E9487191F
:100E100061E088810E942D1982E090E00E940E031B
:100E200081E090E00E945205DF91CF911F910F91D8
:100E3000FF90EF90DF90CF90BF90AF909F908F90FA
:100E40007F906F905F904F9008952F923F924F92B6
:100E50005F926F927F928F929F92AF92BF92CF924A
:100E6000DF92EF92FF920F931F93CF93DF9380E077
:100E70000E947D1680E090E00E945205C0E0D0E024
:100E800004E211E00F2EF2E2CF2EF1E0DF2EF02D82
:100E90000F2EF6E2EF2EF1E0FF2EF02D0F2EFAE2EC
:100EA0008F2EF1E09F2EF02D612C712C0F2EF8E289
:100EB000AF2EF1E0BF2EF02D60E0F80180810E949E
:100EC0002D19FE01EC5FFE4F208140E0F6016081AC
:100ED000F70180810E94871961E0F80180810E94FA
:100EE0002D19F40180810E945E19019729F5609106
:100EF000180170911901072E000C880B990B0E94A4
:100F00003C182196C330D10514F0C62DD72D60E0D2
:100F1000F80180810E942D19FE01EC5FFE4F2081B7
:100F200040E0F6016081F70180810E94871961E04D
:100F3000F80180810E942D19F50180810E945E19BF
:100F4000019709F0B9CF6091180170911901072E2E
:100F5000000C880B990B0E943C1880E090E00E94E6
:100F6000520560911C0170911D01072E000C880B29
:100F7000990B0E943C18C12CD12C04E211E00F2ED9
:100F8000F2E2AF2EF1E0BF2EF02D0F2EF6E2EF2EA3
:100F9000F1E0FF2EF02D0F2EFAE28F2EF1E09F2EC2
:100FA000F02D412C512C0F2EF8E26F2EF1E07F2E08
:100FB000F02D60E0F80180810E942D19F601EC5FB0
:100FC000FE4F208140E0F5016081F70180810E94A1
:100FD000871961E0F80180810E942D19F401808158
:100FE0000E945E19019741F56091180170911901F5
:100FF000072E000C880B990B0E943C18FFEFCF1AAC
:10100000DF0A8AE0C816D10414F0C42CD52C60E0A5
:10101000F80180810E942D19F601EC5FFE4F2081BE
:1010200040E0F5016081F70180810E94871961E04D
:10103000F80180810E942D19F30180810E945E19C0
:10104000019709F0B6CF6091180170911901072E30
:10105000000C880B990B0E943C1880E090E00E94E5
:10106000520560911C0170911D01072E000C880B28
:10107000990B0E943C18E12CF12C04E211E00F2E98
:10108000F2E28F2EF1E09F2EF02D0F2EF6E2AF2E22
:10109000F1E0BF2EF02D0F2EFAE26F2EF1E07F2E41
:1010A000F02D212C312C0F2EF8E24F2EF1E05F2E87
:1010B000F02D60E0F80180810E942D19F701EC5FAE
:1010C000FE4F208140E0F4016081F50180810E94A3
:1010D000871961E0F80180810E942D19F301808158
:1010E0000E945E19019741F56091180170911901F4
:1010F000072E000C880B990B0E943C18FFEFEF1A8B
:10110000FF0A86E0E816F10414F0E22CF32C60E00C
:10111000F80180810E942D19F701EC5FFE4F2081BC
:1011200040E0F4016081F50180810E94871961E04F
:10113000F80180810E942D19F20180810E945E19C0
:10114000019709F0B6CF6091180170911901072E2F
:10115000000C880B990B0E943C1880E090E00E94E4
:10116000520560911C0170911D01072E000C880B27
:10117000990B0E943C1800E010E00F2EF4E2AF2E15
:10118000F1E0BF2EF02D0F2EF2E28F2EF1E09F2E18
:10119000F02D0F2EF6E26F2EF1E07F2EF02D0F2EA8
:1011A000FAE24F2EF1E05F2EF02D0F2EF8E22F2EF7
:1011B000F1E03F2EF02D60E0F50180810E942D19B5
:1011C000F801EC5FFE4F208140E0F4016081F30103
:1011D00080810E94871961E0F50180810E942D19AC
:1011E000F20180810E945E19019731F5609118012A
:1011F00070911901072E000C880B990B0E943C1866
:101200000F5F1F4F0A30110514F000E010E060E09E
:10121000F50180810E942D19F801EC5FFE4F2081BD
:1012200040E0F4016081F30180810E94871961E050
:10123000F50180810E942D19F10180810E945E19C3
:10124000019709F0B8CF6091180170911901072E2C
:10125000000C880B990B0E943C1880E090E00E94E3
:10126000520560911C0170911D01072E000C880B26
:10127000990B0E943C18CC0F8C2F880F880FC80F39
:10128000CC0DEE0C6E2D660F660FE60E6E2D600F08
:10129000C83108F078C06C3308F075C088E791E079
:1012A0000E94DB016C2F88E791E00E94F00188E743
:1012B00091E00E94D402C4E2D1E060E088810E9403
:1012C0002D190F2EF4E0CF2EF1E0DF2EF02D0F2E92
:1012D000F2E2EF2EF1E0FF2EF02D06E211E0F60132
:1012E000228540E0F7016081F80180810E94871922
:1012F00061E088810E942D1960911A0170911B0193
:10130000072E000C880B990B0E943C1880E090E09F
:101310000E94520560911A0170911B01072E000C6A
:10132000880B990B0E943C1860E088810E942D195F
:10133000F601228540E0F7016081F80180810E947A
:10134000871961E088810E942D1960911A017091BE
:101350001B01072E000C880B990B0E943C1880E0A3
:1013600090E00E94520588E791E00E949C0190E085
:10137000909385018093840143E050E06DE073E039
:1013800080E00E945A16DF91CF911F910F91FF903C
:10139000EF90DF90CF90BF90AF909F908F907F9015
:1013A0006F905F904F903F902F9008956F927F9233
:1013B0008F929F92AF92BF92CF92DF92EF92FF9265
:1013C0000F931F93CF93DF9380E00E947D1688E7F1
:1013D00091E00E944A0288E791E00E94AA01C82F8A
:1013E00088E791E00E94AA01209181013091820159
:1013F000232B09F053C0D0E004E211E00F2EF4E0FB
:101400008F2EF1E09F2EF02D0F2EF2E2AF2EF1E0A5
:10141000BF2EF02D0F2EF6E2CF2EF1E0DF2EF02DB5
:10142000E82EF12C0F2EF8E26F2EF1E07F2EF02D3A
:1014300060E0F80180810E942D19F401218940E0CB
:10144000F5016081F60180810E94871961E0F80151
:1014500080810E942D1965E070E080E090E00E949C
:101460003C1880E090E00E945205EC16FD0681F4E5
:1014700088E791E00E944A0288E791E00E94AA0171
:10148000C82FD0E0F30180810E945E19892B81F280
:1014900081E090E0909382018093810188E791E060
:1014A0000E949C0190E0909385018093840143E029
:1014B00050E06DE073E080E00E945A16DF91CF911A
:1014C0001F910F91FF90EF90DF90CF90BF90AF9062
:1014D0009F908F907F906F9008952F923F924F92A0
:1014E0005F926F927F928F929F92AF92BF92CF92B4
:1014F000DF92EF92FF920F931F93CF93DF9380E0E1
:101500000E947D1680E090E00E945205C4E2D1E086
:1015100060E088810E942D190F2EF4E0CF2EF1E0BB
:10152000DF2EF02D0F2EF2E2EF2EF1E0FF2EF02D48
:1015300006E211E0F601218940E0F7016081F8013F
:1015400080810E94871961E088810E942D19609135
:101550001A0170911B01072E000C880B990B0E9439
:101560003C1880E090E00E94520560E088810E9473
:101570002D19F601218940E0F7016081F801808191
:101580000E94871961E088810E942D1960911A01DB
:1015900070911B01072E000C880B990B0E943C18C0
:1015A00080E090E00E94520560E088810E942D1941
:1015B000F601218940E0F7016081F80180810E94F5
:1015C000871961E088810E942D1960911A0170913C
:1015D0001B01072E000C880B990B0E943C1880E021
:1015E00090E00E945205C0E0D0E004E211E0670103
:1015F0000F2EF6E2EF2EF1E0FF2EF02D0F2EFAE285
:101600008F2EF1E09F2EF02D612C712C0F2EF8E221
:10161000AF2EF1E0BF2EF02D60E0F80180810E9436
:101620002D19FE01EC5FFE4F208140E0F601608144
:10163000F70180810E94871961E0F80180810E9492
:101640002D19F40180810E945E19019729F560919E
:10165000180170911901072E000C880B990B0E943C
:101660003C182196C230D10514F0C62DD72D60E06C
:10167000F80180810E942D19FE01EC5FFE4F208150
:1016800040E0F6016081F70180810E94871961E0E6
:10169000F80180810E942D19F50180810E945E1958
:1016A000019709F0B9CF6091180170911901072EC7
:1016B000000C880B990B0E943C1880E090E00E947F
:1016C000520560911C0170911D01072E000C880BC2
:1016D000990B0E943C18A12CB12C04E211E00F2EB2
:1016E000F2E2CF2EF1E0DF2EF02D0F2EF6E2EF2EFC
:1016F000F1E0FF2EF02D0F2EFAE28F2EF1E09F2E5B
:10170000F02D412C512C0F2EF8E26F2EF1E07F2EA0
:10171000F02D60E0F80180810E942D19F501EC5F49
:10172000FE4F208140E0F6016081F70180810E9438
:10173000871961E0F80180810E942D19F4018081F0
:101740000E945E190197C9F5609118017091190105
:10175000072E000C880B990B0E943C18209741F42F
:10176000F9E0AF16B1047CF48FEFA81AB80A10C0E4
:10177000C130D10569F4E2E0AE16B1043CF4FFEFEC
:10178000AF1ABF0A05C0A42CB52C02C0A42CB52CDE
:1017900060E0F80180810E942D19F501EC5FFE4F99
:1017A000208140E0F6016081F70180810E94871965
:1017B00061E0F80180810E942D19F30180810E946F
:1017C0005E19019709F0A5CF609118017091190178
:1017D000072E000C880B990B0E943C1880E090E0CB
:1017E0000E94520560911C0170911D01072E000C92
:1017F000880B990B0E943C1800E010E00F2EF4E2D9
:10180000EF2EF1E0FF2EF02D0F2EF2E28F2EF1E001
:101810009F2EF02D0F2EF6E2CF2EF1E0DF2EF02DD1
:101820000F2EFAE26F2EF1E07F2EF02D212C312CBD
:101830000F2EF8E24F2EF1E05F2EF02D60E0F70161
:1018400080810E942D19F801EC5FFE4F208140E05D
:10185000F4016081F60180810E94871961E0F7013F
:1018600080810E942D19F30180810E945E190197E9
:1018700031F56091180170911901072E000C880B49
:10188000990B0E943C180F5F1F4F0630110514F092
:10189000022D132D60E0F70180810E942D19F801BF
:1018A000EC5FFE4F208140E0F4016081F601808111
:1018B0000E94871961E0F70180810E942D19F201D1
:1018C00080810E945E19019709F0B8CF60911801DC
:1018D00070911901072E000C880B990B0E943C187F
:1018E00080E090E00E94520560911C0170911D0102
:1018F000072E000C880B990B0E943C18E12CF12C50
:101900000F2EF4E2CF2EF1E0DF2EF02D0F2EF2E2BB
:101910008F2EF1E09F2EF02D0F2EF6E26F2EF1E0CC
:101920007F2EF02D0F2EFAE24F2EF1E05F2EF02DDC
:101930000F2EF8E22F2EF1E03F2EF02D60E0F601A1
:1019400080810E942D19F701EC5FFE4F208140E05D
:10195000F4016081F30180810E94871961E0F60142
:1019600080810E942D19F20180810E945E190197E9
:1019700041F56091180170911901072E000C880B38
:10198000990B0E943C18FFEFEF1AFF0A8AE0E81655
:10199000F10414F0E12CF12C60E0F60180810E944A
:1019A0002D19F701EC5FFE4F208140E0F4016081CA
:1019B000F30180810E94871961E0F60180810E9415
:1019C0002D19F10180810E945E19019709F0B6CFAF
:1019D0006091180170911901072E000C880B990B6A
:1019E0000E943C1880E090E00E94520560911C012A
:1019F00070911D01072E000C880B990B0E943C185A
:101A00000F2EF1E18F2E912CF02D0F2EF4E2CF2E20
:101A1000F1E0DF2EF02D0F2EF2E26F2EF1E07F2E9F
:101A2000F02D0F2EF6E24F2EF1E05F2EF02D0F2E4F
:101A3000FAE22F2EF1E03F2EF02D60E0F6018081DA
:101A40000E942D19F401EC5FFE4F208140E0F3016C
:101A50006081F20180810E94871961E0F601808136
:101A60000E942D19F10180810E945E19019759F59C
:101A70006091180170911901072E000C880B990BC9
:101A80000E943C18FFEF8F1A9F0A83E18816910489
:101A90002CF00F2EF1E18F2EF02D912C60E0F6014D
:101AA00080810E942D19F401EC5FFE4F208140E0FF
:101AB000F3016081F20180810E94871961E0F601E3
:101AC00080810E942D19E8E2F1E080810E945E1978
:101AD000019709F0B2CF6091180170911901072E9A
:101AE000000C880B990B0E943C1880E090E00E944B
:101AF000520560911C0170911D01072E000C880B8E
:101B0000990B0E943C18CE01880F991FCC0FDD1F46
:101B1000CC0FDD1FCC0FDD1FC80FD91FCE018A0DE2
:101B20009B1DB801660F771F000F111F000F111FBB
:101B3000000F111F060F171FB8016E0D7F1D8D308E
:101B400091050CF071C06C3371050CF06DC021E093
:101B500030E0A4010E945904C4E2D1E060E0888131
:101B60000E942D190F2EF4E0CF2EF1E0DF2EF02D84
:101B70000F2EF2E2EF2EF1E0FF2EF02D06E211E043
:101B8000F601228540E0F7016081F80180810E9422
:101B9000871961E088810E942D1960911A01709166
:101BA0001B01072E000C880B990B0E943C1880E04B
:101BB00090E00E94520560911A0170911B01072E5E
:101BC000000C880B990B0E943C1860E088810E94F1
:101BD0002D19F601228540E0F7016081F80180812E
:101BE0000E94871961E088810E942D1960911A0175
:101BF00070911B01072E000C880B990B0E943C185A
:101C000080E090E00E94520588E791E00E949C01EC
:101C100090E0909385018093840143E050E06DE073
:101C200073E080E00E945A160E942803DF91CF9152
:101C30001F910F91FF90EF90DF90CF90BF90AF90EA
:101C40009F908F907F906F905F904F903F902F90DC
:101C500008956F927F928F929F92AF92BF92CF9290
:101C6000DF92EF92FF920F931F93CF93DF9300E0E9
:101C700010E0C4E2D1E00F2EF2E2CF2EF1E0DF2E31
:101C8000F02D0F2EF6E2EF2EF1E0FF2EF02D0F2EAD
:101C9000FAE28F2EF1E09F2EF02D612C712C0F2E89
:101CA000F8E2AF2EF1E0BF2EF02D60E088810E94B7
:101CB0002D19F801E050FF4F208140E0F6016081CE
:101CC000F70180810E94871961E088810E942D19A7
:101CD000F40180810E945E19019721F5609118013D
:101CE00070911901072E000C880B990B0E943C186B
:101CF0000F5F1F4F0430110514F0062D172D60E003
:101D000088810E942D19F801EC5FFE4F208140E090
:101D1000F6016081F70180810E94871961E0888166
:101D20000E942D19F50180810E945E19019709F02A
:101D3000BCCF6091180170911901072E000C880B1F
:101D4000990B0E943C1860911C0170911D01072E97
:101D5000000C880B990B0E943C180130110571F0A2
:101D60001CF4012B41F02EC00230110551F003305C
:101D70001105F1F027C00E94250724C00E946D0ABA
:101D800021C08091910181110AC081E0809391016D
:101D900084E190E090931F0180931E0113C0109284
:101DA00091018FE090E090931F0180931E010AC083
:101DB00080918301811104C081E08093830102C07E
:101DC0001092830180E090E00E94520560911C0116
:101DD00070911D01072E000C880B990B0E943C1876
:101DE000DF91CF911F910F91FF90EF90DF90CF90F7
:101DF000BF90AF909F908F907F906F900895CF93FA
:101E000088E791E00E944A0288E791E00E949C01E5
:101E100090E020911E0130911F018217930724F456
:101E2000109285011092840188E791E00E94B80128
:101E3000C82F88E791E00E94AA01682F70E08C2FDC
:101E400090E00E94EE03019711F40E94D609809160
:101E50002A010E945E19019711F40E94290E8091B7
:101E60008301882349F0809128010E945E1901971F
:101E700001F50E9482051DC088E791E00E949C0147
:101E800090E02091840130918501821B930B209179
:101E90001E0130911F01821793075CF00E9482059A
:101EA00088E791E00E949C0190E0909385018093E7
:101EB0008401CF91089588E791E00E9497010895E9
:101EC000EF92FF920F931F93CF93DF937B01142F19
:101ED000682F8EEA92E00E94A317112381F0E70198
:101EE0001150012F10E00F5F1F4F0E0D1F1D699144
:101EF0008EEA92E00E944617C017D107C1F78EEA1A
:101F000092E00E94C317DF91CF911F910F91FF9034
:101F1000EF900895CF93DF9300D0CDB7DEB79EE06A
:101F200099838A8342E0BE016F5F7F4F88E60E94FB
:101F3000600F0F900F90DF91CF91089580950E94D0
:101F40008A0F0895CF93DF9300D000D000D0CDB793
:101F5000DEB78EEA92E00E94871788B1807288B956
:101F600088B1807188B988E791E00E94C60260E07C
:101F700080912C010E94EE1861E0809126010E9460
:101F8000EE1861E0809122010E94EE1861E08091DC
:101F900024010E94EE1860E080912A010E94EE1850
:101FA00060E0809128010E94EE1860E0809120019D
:101FB0000E94EE188AE090E00E94341C811133C028
:101FC00088E791E00E94A30281112DC04EE652E005
:101FD00062E672E0CE0101960E941F136E8188E7CF
:101FE00091E00E94C6016D8188E791E00E94DB01CB
:101FF0006C8188E791E00E94F0016B8188E791E0B5
:102000000E9405026A8188E791E00E941A026981B4
:1020100070E06053784F88E791E00E942F0288E7D4
:1020200091E00E94D40261E08AE090E00E943C1CB2
:102030006AE070E080E090E00E943C1888E791E060
:102040000E94A302811107C066E372E082E991E079
:102050000E94551206C060E272E082E991E00E949F
:1020600055128CE00E949E0F80E00E948A0F6AE069
:1020700070E080E090E00E943C1883B7817F84602C
:1020800083BF83B7816083BF789443E050E06DE005
:1020900073E080E00E945A160E94280326960FB62D
:1020A000F894DEBF0FBECDBFDF91CF9108950E949F
:1020B000A20F81E090E00E9452050895FC01918DED
:1020C000228D892F90E0805C9F4F821B91098F7336
:1020D00099270895FC01918D828D981731F0828D9A
:1020E000E80FF11D858D90E008958FEF9FEF089523
:1020F000FC01918D828D981761F0828DDF01A80F10
:10210000B11D5D968C91928D9F5F9F73928F90E031
:1021100008958FEF9FEF089583E991E1892B49F0AE
:1021200080E090E0892B29F00E94931181110E9498
:1021300000000895FC01848DDF01A80FB11DA35A92
:10214000BF4F8C91248D30E02F5F3F4F2F7330783D
:10215000332334F421503109206C3F6F2F5F3F4F00
:10216000248FA689B7898C93A089B1898C918064CA
:102170008C93938D848D981306C00288F389E02D8B
:1021800080818F7D80830895CF93DF93EC01888DCC
:1021900081110FC018C00FB607FC0DC0908195FFCC
:1021A0000AC0A889B9898C9185FF05C0CE010E941B
:1021B0009A10EA89FB89908195FDEDCFA889B989AC
:1021C0008C9186FFE8CFDF91CF9108950F931F93F5
:1021D000CF93DF93FC01938D848D981324C0A08945
:1021E000B1898C9185FD31C01EC00FB607FC08C0B7
:1021F000E889F989808185FF03C0CE010E949A1089
:102200009C8D091791F38B8DFE01E80FF11DE35AA8
:10221000FF4F10830B8FEA89FB8980818062808366
:1022200081E0888F1BC0238D30E02F5F3F4F2F73DD
:102230003078332334F421503109206C3F6F2F5F05
:102240003F4F162FEF01022FDBCFA689B7896C9382
:102250000088F189E02D80818064808381E090E0B6
:10226000DF91CF911F910F9108951F920F920FB69A
:102270000F9211242F938F939F93AF93BF93EF935C
:10228000FF93E091A201F091A301808182FD14C02F
:10229000E2E9F1E0A689B7892C91818D8F5F8F7378
:1022A000928D891771F0DF01E18DF0E0EE56FE4F5F
:1022B000258F59968C9305C0E091A801F091A90152
:1022C0008081FF91EF91BF91AF919F918F912F915D
:1022D0000F900FBE0F901F9018951F920F920FB680
:1022E0000F9211242F933F934F935F936F937F939C
:1022F0008F939F93AF93BF93EF93FF9382E991E006
:102300000E949A10FF91EF91BF91AF919F918F9191
:102310007F916F915F914F913F912F910F900FBEE1
:102320000F901F90189582E991E00E945E1021E0C5
:10233000892B09F420E0822F0895E2E9F1E013826D
:10234000128288EE93E0A0E0B0E084839583A683B8
:10235000B78384E391E09183808385EC90E0958757
:10236000848784EC90E09787868780EC90E0918B5F
:10237000808B81EC90E0938B828B82EC90E0958B4C
:10238000848B86EC90E0978B868B118E128E138E49
:10239000148E089508958F929F92AF92BF92CF921C
:1023A000DF92EF92FF920F931F93CF93DF935C0125
:1023B0007B014C0182E0880E911C6501E5E0CE0EA8
:1023C000D11C00E010E0F40161914F014AE050E0BF
:1023D000C7010E940813EC016EE2C7010E947E1241
:1023E0008C0F9D1F080F191F8C149D0461F74AE084
:1023F00050E0F5016581C7010E940813800F911F0D
:10240000DF91CF911F910F91FF90EF90DF90CF90D0
:10241000BF90AF909F908F900895EFE2F2E084E438
:1024200091E0918380831282138214821582089531
:1024300008950E9468180E9418120E945710CCE854
:10244000D0E10E94FF0E2097E1F30E948C10F9CF9B
:10245000CF92DF92EF92FF920F931F93CF93DF9370
:1024600041155105B1F08C01E62EF72EEA01C12C81
:10247000D12CD7016D917D01D801ED91FC91019096
:10248000F081E02DC8010995C80ED91E219789F762
:1024900002C0C12CD12CC601DF91CF911F910F91A9
:1024A000FF90EF90DF90CF900895EF92FF920F93FF
:1024B0001F93CF93DF93EB012196FB016491662379
:1024C00099F08C01E12CF12CD801ED91FC91019057
:1024D000F081E02DC8010995E80EF91EFE01649116
:1024E00021966111F1CF02C0E12CF12CC701DF91DF
:1024F000CF911F910F91FF90EF900895DC01ED9126
:10250000FC910190F081E02D099508954F925F9222
:102510006F927F929F92AF92BF92CF92DF92EF9293
:10252000FF920F931F93CF93DF93CDB7DEB7A197A1
:102530000FB6F894DEBF0FBECDBF5C016A017B0110
:10254000922E19A281E0821720F00F2EFAE09F2E22
:10255000F02D8E010F5D1F4F492C512C612C712CD9
:10256000C701B601A30192010E94EF1B8C2D929E20
:1025700080191124015011098A3010F4805D01C0C6
:10258000895CD8018C93C22ED32EE42EF52EC11473
:10259000D104E104F10421F70115110591F0F801CE
:1025A00001900020E9F73197AF01401B510BD50195
:1025B000ED91FC910280F381E02DB801C5010995F0
:1025C00002C080E090E0A1960FB6F894DEBF0FBE87
:1025D000CDBFDF91CF911F910F91FF90EF90DF90D2
:1025E000CF90BF90AF909F907F906F905F904F90F3
:1025F00008952115310549F4DC01ED91FC9101901C
:10260000F081E02D642F099508950E9486120895A7
:102610009A01462F50E060E070E00E94F9120895A0
:10262000FC01908190539A3008F090E081818053B2
:10263000990F292F220F220F920F890F0895CF9201
:10264000DF92EF92FF920F931F93CF93DF93CDB75B
:10265000DEB72B970FB6F894DEBF0FBECDBF7C015F
:102660006A014BE050E0CE0101960E942B1CCE0186
:102670000A960E941013F7018083E9810E2F10E063
:10268000F801E154F109E331F105B8F5EC5CFF4FD5
:102690000C94111C8A81813639F08B818E3611F0B1
:1026A00087E003C086E001C081E0F701818325C097
:1026B00082E0F701818321C08B81823711F088E0AD
:1026C00001C084E0F701818318C08B81823711F04B
:1026D00085E001C083E0F70181830FC089E0F70145
:1026E00081830BC08AE0F701818307C08BE0F7018B
:1026F000818303C08CE0F7018183CE0105960E949F
:102700001013F701828348E050E0B601CE01019634
:102710000E942B1CCE0101960E941013F7018383A7
:10272000CE0104960E941013F7018483CE01079610
:102730000E941013F70185832B960FB6F894DEBF25
:102740000FBECDBFDF91CF911F910F91FF90EF9002
:10275000DF90CF900895813039F018F0823051F039
:10276000089510926E000895EFE6F0E080818D7F6D
:1027700080830895E0E7F0E080818D7F808381E0B1
:102780008093B000E1EBF0E08081887F84608083FB
:102790001092B3000895CF93C82F80912E018C130F
:1027A00008C0E7E7F2E0E4918E2F9FEF90932E01AF
:1027B00001C08FEF0E94AB1360E08C2F0E942D1997
:1027C000CF9108951F920F920FB60F9211242F935D
:1027D0003F934F935F936F937F938F939F93AF93A9
:1027E000BF93EF93FF938091380290913902A091AB
:1027F0003A02B0913B02892B8A2B8B2B51F18091AD
:102800003502E0913602F09137029081892780836A
:102810008091380290913902A0913A02B0913B0226
:10282000181619061A061B06C4F4809138029091F6
:102830003902A0913A02B0913B020197A109B10976
:102840008093380290933902A0933A02B0933B02EE
:1028500004C080912E010E94CB13FF91EF91BF9194
:10286000AF919F918F917F916F915F914F913F9128
:102870002F910F900FBE0F901F9018951092A902E4
:1028800081E08093A7021092A60261E082E10E949B
:102890002D1961E083E10E942D19E9EBF0E08081C0
:1028A0008E7F808380818D7F808388E48093B800D1
:1028B00085E48093BC000895413208F046C09091B1
:1028C000A9029111FCCF31E03093A9022093A70215
:1028D0002FEF20933C0210928102240F209380025C
:1028E0003093A8022091A802880F822B8093A8021F
:1028F0008091A602813051F41092A6028091A80224
:102900008093BB0085EC8093BC0003C085EE809370
:10291000BC008091A9028130E1F38091810284178B
:1029200010F440918102442389F0A2E8B2E0FB0157
:102930008FEF840F90E00196680F791F8D9181933E
:10294000E617F707D9F7942F01C090E0892F089573
:102950000F93413208F051C03091A9023111FCCFE0
:1029600092E09093A9020093A7029FEF90933C02FC
:102970001092810240938002442371F0FB01A2E88F
:10298000B2E0415050E04F5F5F4F640F751F91916F
:102990009D93E617F707D9F71092A8029091A80225
:1029A000880F892B8093A8028091A602813051F470
:1029B0001092A6028091A8028093BB0085EC8093C0
:1029C000BC0003C085EE8093BC00222341F08091BF
:1029D000A902823021F48091A9028230E1F3809132
:1029E0003C028F3F79F080913C02803241F080912F
:1029F0003C02803331F034E005C031E003C032E006
:102A000001C033E0832F0F9108956132C8F4209103
:102A1000A9022430B9F460935E026623A9F0FC0198
:102A2000A0E6B2E06150262F30E02F5F3F4F280F25
:102A3000391F91919D93E217F307D9F780E008952C
:102A400081E0089582E0089580E0089585ED809307
:102A5000BC00ECEBF0E0808184FDFDCF1092A90278
:102A6000089585EC8093BC001092A90208951F92EE
:102A70000F920FB60F9211242F933F934F935F93B2
:102A80006F937F938F939F93AF93BF93EF93FF9336
:102A90008091B900E82FE87F8E2F90E0893C910566
:102AA00008F0F7C0FC01E95BFF4F0C94111C80910A
:102AB000A8028093BB0085EC8093BC00EAC0909193
:102AC000810280918002981780F4E091810281E078
:102AD0008E0F80938102F0E0EE57FD4F808180934E
:102AE000BB0085EC8093BC00D4C08091A7028823F2
:102AF00019F00E942615CDC081E08093A60284EAD9
:102B00008093BC001092A902C4C080E280933C0272
:102B10000E942615BEC080E380933C020E942615C9
:102B2000B8C088E380933C020E943115B2C0E091A6
:102B3000810281E08E0F809381028091BB00F0E0E2
:102B4000EE57FD4F8083909181028091800298170B
:102B500020F485EC8093BC009CC085E88093BC0089
:102B600098C0E091810281E08E0F80938102809174
:102B7000BB00F0E0EE57FD4F80838091A7028823D1
:102B800019F00E94261585C081E08093A60284EA90
:102B90008093BC001092A9027CC00E94261579C0C7
:102BA00083E08093A90210923D0285EC8093BC00E3
:102BB00070C080913D02803280F4E0913D0281E05E
:102BC0008E0F80933D028091BB00F0E0E25CFD4FF0
:102BD000808385EC8093BC005CC085E88093BC005A
:102BE00058C080913D02803230F4E0913D02F0E027
:102BF000E25CFD4F10820E94261560913D0270E05C
:102C0000E091A202F091A3028EE392E00995109266
:102C10003D020E9431153DC085E88093BC0039C05B
:102C200084E08093A90210925F0210925E02E0910C
:102C3000A402F091A502099580915E02811105C060
:102C400081E080935E0210926002E0915F0281E079
:102C50008E0F80935F02F0E0E05AFD4F80818093F9
:102C6000BB0090915F0280915E02981720F485EC82
:102C70008093BC000EC085E88093BC000AC085EC40
:102C80008093BC001092A90204C010923C020E94E2
:102C90002615FF91EF91BF91AF919F918F917F91F9
:102CA0006F915F914F913F912F910F900FBE0F90B9
:102CB0001F901895823000F5E82FF0E0EE0FFF1F0F
:102CC000E655FD4F71836083882319F0813049F008
:102CD0000895E9E6F0E080818C7F482B4083E89AF4
:102CE0000895E9E6F0E08081440F551F440F551F19
:102CF000837F482B4083E99A0895823080F48823AB
:102D000019F0813019F003C0E89801C0E998E82F64
:102D1000F0E0EE0FFF1FE655FD4F1182108208957F
:102D20001F920F920FB60F9211242F933F934F9340
:102D30005F936F937F938F939F93AF93BF93EF9323
:102D4000FF938091AA029091AB02892B29F0E09128
:102D5000AA02F091AB020995FF91EF91BF91AF915B
:102D60009F918F917F916F915F914F913F912F91A3
:102D70000F900FBE0F901F9018951F920F920FB6D5
:102D80000F9211242F933F934F935F936F937F93F1
:102D90008F939F93AF93BF93EF93FF938091AC0278
:102DA0009091AD02892B29F0E091AC02F091AD0237
:102DB0000995FF91EF91BF91AF919F918F917F9175
:102DC0006F915F914F913F912F910F900FBE0F9098
:102DD0001F9018958091DE0290E02091DF02821B07
:102DE000910908959091DF028091DE02981750F4C6
:102DF000E92FF0E0E052FD4F208130E09F5F90939B
:102E0000DF0202C02FEF3FEFC9010895E091DF021A
:102E10008091DE02E81730F4F0E0E052FD4F80814F
:102E200090E008958FEF9FEF08950895CF92DF927D
:102E3000EF92FF920F931F93CF93DF938C01CB01FF
:102E40006A012091BA022223A1F041155105A1F097
:102E5000EB017B01E40EF51E6991D801ED91FC9127
:102E60000190F081E02DC8010995CE15DF05A1F78D
:102E700003C0642F0E940515C601DF91CF911F91F9
:102E80000F91FF90EF90DF90CF900895CF93DF9355
:102E90001F92CDB7DEB7FC0169839091BA029923E6
:102EA000D9F09091BB02903238F081E090E09383AA
:102EB000828380E090E017C08091BC02E82FF0E0B0
:102EC000E354FD4F998190838F5F8093BC02809380
:102ED000BB0281E090E007C061E0CE0101960E9454
:102EE000051581E090E00F90DF91CF910895FC01EE
:102EF0001382128288EE93E0A0E0B0E08483958391
:102F0000A683B7838AE491E0918380830895109229
:102F1000DF021092DE021092BC021092BB020E94ED
:102F20003E140895862F413208F040E260EE72E0D0
:102F30000E945C141092DF028093DE02089521E06B
:102F40000E949217089581E08093BA026093DD0297
:102F50001092BC021092BB0208950E94A31708951C
:102F60000F93062F21E04091BB026DEB72E0809140
:102F7000DD020E94A8141092BC021092BB021092B3
:102F8000BA020F91089561E00E94B01708958EEA89
:102F900092E00E94771708951F920F920FB60F923A
:102FA00011242F933F938F939F93AF93BF9380915F
:102FB000010390910203A0910303B09104033091A7
:102FC000000323E0230F2D3720F40196A11DB11D2E
:102FD00005C026E8230F0296A11DB11D2093000312
:102FE0008093010390930203A0930303B09304031F
:102FF0008091050390910603A0910703B091080307
:103000000196A11DB11D8093050390930603A09323
:103010000703B0930803BF91AF919F918F913F91A8
:103020002F910F900FBE0F901F9018953FB7F894F7
:103030008091050390910603A0910703B0910803C6
:1030400026B5A89B05C02F3F19F00196A11DB11D03
:103050003FBFBA2FA92F982F8827820F911DA11D3E
:10306000B11DBC01CD01660F771F881F991F660F28
:10307000771F881F991F0895CF92DF92EF92FF92DA
:10308000CF93DF936B017C010E941618EB01C114F2
:10309000D104E104F104A9F00E94CA110E9416189B
:1030A0006C1B7D0B683E734038F081E0C81AD10874
:1030B000E108F108C851DC4FC114D104E104F10466
:1030C00059F7DF91CF91FF90EF90DF90CF90089567
:1030D000789484B5826084BD84B5816084BD85B5F3
:1030E000826085BD85B5816085BDEEE6F0E08081BA
:1030F00081608083E1E8F0E01082808182608083DB
:10310000808181608083E0E8F0E08081816080835D
:10311000E1EBF0E0808184608083E0EBF0E080818F
:1031200081608083EAE7F0E0808184608083808131
:1031300082608083808181608083808180688083D9
:103140001092C10008958E3008F08E5087709091D3
:103150002F0140E4949F90011124282B20937C00A0
:10316000EAE7F0E0808180648083808186FDFDCF86
:10317000809178002091790090E0922B089583301F
:1031800069F028F48130B1F08230C1F008958730C1
:10319000C9F08830E9F0843001F506C0E0E8F0E0DD
:1031A00080818F7780830895E0E8F0E080818F7DD3
:1031B0008083089584B58F7784BD089584B58F7D0D
:1031C00084BD0895E0EBF0E080818F7780830895DF
:1031D000E0EBF0E080818F7D80830895CF93DF93D3
:1031E00090E0FC01E457FD4F2491FC01E056FD4FB7
:1031F0008491882379F190E0880F991FFC01E853AE
:10320000FD4FA591B491FC01E254FD4FC591D491BD
:1032100061110CC09FB7F8948C91E22FE0958E233A
:103220008C932881E223E8839FBF14C0623061F44D
:103230009FB7F8943C91822F809583238C93E881EB
:10324000E22BE8839FBF06C08FB7F894EC91E22B86
:10325000EC938FBFDF91CF9108951F93CF93DF93AE
:10326000282F30E0F901E858FD4F8491F901E45727
:10327000FD4F1491F901E056FD4FC491CC23D1F0DC
:10328000D62F81110E94BF18EC2FF0E0EE0FFF1F28
:10329000E254FD4FA591B4918FB7F894D11106C0B7
:1032A0009C91E12FE095E923EC9303C0EC91E12B95
:1032B000EC938FBFDF91CF911F910895CF93DF9350
:1032C000282F30E0F901E858FD4F8491F901E457C7
:1032D000FD4FD491F901E056FD4FC491CC2391F0FC
:1032E00081110E94BF18EC2FF0E0EE0FFF1FEC548D
:1032F000FD4FA591B491EC91ED2381E090E021F494
:1033000080E002C080E090E0DF91CF910895BF920D
:10331000CF92DF92EF92FF920F931F93CF93DF93A1
:10332000B82E162F042FC7E0D0E0E22EF12C0F2E7E
:10333000F7E0CF2ED12CF02D01110EC0C6018C1B51
:103340009D0BB70102C0759567958A95E2F761708C
:103350008B2D0E942D190BC0B7010C2E02C0759544
:1033600067950A94E2F761708B2D0E942D1961E038
:10337000812F0E942D1960E0812F0E942D19219725
:10338000D8F6DF91CF911F910F91FF90EF90DF90D2
:10339000CF90BF9008955058BB27AA270E94E319E9
:1033A0000C94341B0E94261B38F00E942D1B20F029
:1033B00039F49F3F19F426F40C94231B0EF4E09586
:1033C000E7FB0C941D1BE92F0E94451B58F3BA170D
:1033D000620773078407950720F079F4A6F50C942B
:1033E000671B0EF4E0950B2EBA2FA02D0B01B9012F
:1033F00090010C01CA01A0011124FF27591B99F06B
:10340000593F50F4503E68F11A16F040A22F232F76
:10341000342F4427585FF3CF469537952795A795C6
:10342000F0405395C9F77EF41F16BA0B620B730B6D
:10343000840BBAF09150A1F0FF0FBB1F661F771FDE
:10344000881FC2F70EC0BA0F621F731F841F48F493
:10345000879577956795B795F7959E3F08F0B0CF1C
:103460009395880F08F09927EE0F97958795089503
:103470000E944C1A0C94341B0E942D1B58F00E9481
:10348000261B40F029F45F3F29F00C941D1B5111BD
:103490000C94681B0C94231B0E94451B68F3992312
:1034A000B1F3552391F3951B550BBB27AA27621740
:1034B0007307840738F09F5F5F4F220F331F441F4D
:1034C000AA1FA9F335D00E2E3AF0E0E832D0915081
:1034D0005040E695001CCAF72BD0FE2F29D0660F6E
:1034E000771F881FBB1F261737074807AB07B0E8B1
:1034F00009F0BB0B802DBF01FF2793585F4F3AF0B7
:103500009E3F510578F00C941D1B0C94681B5F3F87
:10351000E4F3983ED4F3869577956795B795F7953C
:103520009F5FC9F7880F911D9695879597F9089524
:10353000E1E0660F771F881FBB1F621773078407C0
:10354000BA0720F0621B730B840BBA0BEE1F88F7CF
:10355000E09508950E94B11A6894B1110C94681B0B
:1035600008950E944D1B88F09F5798F0B92F992716
:10357000B751B0F0E1F0660F771F881F991F1AF05E
:10358000BA95C9F714C0B13091F00E94671BB1E041
:1035900008950C94671B672F782F8827B85F39F040
:1035A000B93FCCF3869577956795B395D9F73EF4F7
:1035B00090958095709561957F4F8F4F9F4F08959F
:1035C000E89409C097FB3EF49095809570956195BD
:1035D0007F4F8F4F9F4F9923A9F0F92F96E9BB2773
:1035E0009395F695879577956795B795F111F8CFEF
:1035F000FAF4BB0F11F460FF1BC06F5F7F4F8F4F5A
:103600009F4F16C0882311F096E911C0772321F04F
:103610009EE8872F762F05C0662371F096E8862FE7
:1036200070E060E02AF09A95660F771F881FDAF73E
:10363000880F9695879597F9089597F99F6780E881
:1036400070E060E008959FEF80EC089500240A94F4
:103650001616170618060906089500240A9412166D
:103660001306140605060895092E0394000C11F4A0
:10367000882352F0BB0F40F4BF2B11F460FF04C04D
:103680006F5F7F4F8F4F9F4F089557FD9058440FA6
:10369000551F59F05F3F71F04795880F97FB991FB1
:1036A00061F09F3F79F0879508951216130614066E
:1036B000551FF2CF4695F1DF08C0161617061806FB
:1036C000991FF1CF86957105610508940895E894D6
:1036D000BB2766277727CB0197F908950E94811BA6
:1036E0000C94341B0E94261B38F00E942D1B20F0E6
:1036F000952311F00C941D1B0C94231B11240C9486
:10370000681B0E94451B70F3959FC1F3950F50E015
:10371000551F629FF001729FBB27F00DB11D639F83
:10372000AA27F00DB11DAA1F649F6627B00DA11D29
:10373000661F829F2227B00DA11D621F739FB00DCF
:10374000A11D621F839FA00D611D221F749F33273F
:10375000A00D611D231F849F600D211D822F762FD8
:103760006A2F11249F5750409AF0F1F088234AF0B5
:10377000EE0FFF1FBB1F661F771F881F9150504021
:10378000A9F79E3F510580F00C941D1B0C94681BFB
:103790005F3FE4F3983ED4F3869577956795B795A8
:1037A000F795E7959F5FC1F7FE2B880F911D9695C2
:1037B000879597F9089597FB072E16F4009407D084
:1037C00077FD09D00E94171C07FC05D03EF49095A8
:1037D00081959F4F0895709561957F4F0895A1E25F
:1037E0001A2EAA1BBB1BFD010DC0AA1FBB1FEE1F7B
:1037F000FF1FA217B307E407F50720F0A21BB30BC6
:10380000E40BF50B661F771F881F991F1A9469F741
:1038100060957095809590959B01AC01BD01CF019D
:103820000895EE0FFF1F0590F491E02D0994AA1B57
:10383000BB1B51E107C0AA1FBB1FA617B70710F09B
:10384000A61BB70B881F991F5A95A9F780959095CD
:10385000BC01CD010895FB01DC0102C005900D9271
:1038600041505040D8F70895F999FECF92BD81BDDF
:10387000F89A992780B50895262FF999FECF1FBA97
:1038800092BD81BD20BD0FB6F894FA9AF99A0FBE89
:0838900001960895F894FFCFA2
:1038980024081C72014F12064C24200F000C7E11C4
:1038A8000C4D401C720818003200140005000F006F
:1038B8000F000700060005000A0009000200FF01CA
:1038C80000000000E61028125E1078106A10C4107C
:1038D80000000000CB110000000046171617EA167A
:0638E800F2160617151789
:00000001FF
